:020000040800F2
:10000000204F0020850200087B3F0008573700087A
:10001000793F0008090C0008B54B000800000000FB
:10002000000000000000000000000000C501000802
:10003000770D000800000000210200085545000867
:100040009F0200089F0200089F0200089F0200080C
:100050009F0200089F0200089F0200089F020008FC
:100060009F0200089F0200089F0200089F020008EC
:100070009F0200089F0200089F0200089F020008DC
:100080009F0200089F0200089F0200089F020008CC
:100090000D0C00089F0200089F0200089F02000844
:1000A0009F0200089F0200089F0200089F020008AC
:1000B0009F0200089F0200089F0200089F0200089C
:1000C0009F0200089F0200089F0200089F0200088C
:1000D0009F020008F14A00089F0200089F020008E2
:1000E0009F0200089F0200089F0200089F0200086C
:1000F0009F0200089F0200089F0200089F0200085C
:100100009F0200089F0200089F0200089F0200084B
:100110009F0200089F0200089F0200089F0200083B
:100120009F0200089F020008AD0C00089F02000813
:100130009F0200089F0200089F0200089F0200081B
:10014000190C00089F0200089F0200089F02000887
:100150009F020008B90C00089F0200089F020008D7
:100160009F0200089F0200089F0200089F020008EB
:100170009F0200089F0200089F0200080000000084
:100180009F0200089F0200089F0200089F020008CB
:100190009F0200089F0200089F0200089F020008BB
:1001A00000000000000000009F020008DFF810D0EF
:1001B00000F06CF900480047DD6C0008AFF30080E8
:1001C000204F00202C4B19680868B0E8F04F80F3EE
:1001D0000988BFF36F8F4FF0000080F311887047DC
:1001E0000000000008480068006880F308884FF0AD
:1001F000000080F3148862B661B6BFF34F8FBFF37F
:100200006F8F00DF00BF00BF08ED00E0DFF80C00DB
:10021000016841F470010160704700BF88ED00E0A3
:10022000EFF30980BFF36F8F134B1A681EF0100FA6
:1002300008BF20ED108A20E9F04F106009B44FF09C
:10024000500080F31188BFF34F8FBFF36F8F07F01B
:1002500011FF4FF0000080F3118809BC196808688D
:10026000B0E8F04F1EF0100F08BFB0EC108A80F31A
:100270000988BFF36F8F704700010020EFF30580FE
:10028000704700000648804706480047FEE7FEE743
:10029000FEE7FEE7FEE7FEE7FEE7FEE7FEE7FEE736
:1002A000FD450008AD0100089FED1A1AF5EE000AA1
:1002B00040EE010ABDEEE00AF5EEC00A10EE100AAB
:1002C000F1EE10FA38BF401E00EE100A1349F7EEA7
:1002D000001AB8EEC00A30EEC00ADFED0F0A20EEB9
:1002E000200AFCEEC00A10EE900AC0F3080000EEEF
:1002F000900A01EB8000F8EE600A90ED011A70EEB2
:10030000600A90ED000A71EEE01A21EE800A00EE1C
:10031000810A704783F9223E0000004430860008BD
:10032000DFED190AB5EEC00A60EE200ABDEEE01A54
:1003300011EE100AF1EE10FA38BF401E00EE100A5E
:100340001349F7EE001AB8EEC00A30EEC00ADFED2E
:100350000F0A60EE200ABCEEE00A10EE100AC0F3AD
:10036000080000EE100A01EB8000B8EE400A90EDA4
:10037000011A70EEC00A90ED000A71EEE01A21EE4B
:10038000800A00EE810A704783F9223E0000004493
:10039000308600082DE9F05F0546002092469B4616
:1003A00088460646814640241BE02846414647468B
:1003B000224600F05AF853465A46C01A914110D3CB
:1003C00011461846224600F041F82D1A67EB010845
:1003D0004F4622460120002100F038F817EB0009B3
:1003E0004E41201EA4F10104DFDC484631462A4676
:1003F0004346BDE8F09F40EA01039B0703D009E0B4
:1004000008C9121F08C0042AFAD203E011F8013B00
:1004100000F8013B521EF9D27047D2B201E000F859
:10042000012B491EFBD270470022F6E710B5134698
:100430000A4604461946FFF7F0FF204610BD421C4D
:1004400010F8011B0029FBD1801A7047202A04DB19
:10045000203A00FA02F1002070479140C2F12003D7
:1004600020FA03F3194390407047202A04DB203A16
:1004700021FA02F00021704721FA02F3D040C2F1C4
:10048000200291400843194670470000064C074D72
:1004900006E0E06840F0010394E807009847103454
:1004A000AC42F6D3FFF786FE6C8E00088C8E0008F7
:1004B00070B58C1810F8015B15F0070301D110F826
:1004C000013B2A1106D110F8012B03E010F8016B53
:1004D00001F8016B5B1EF9D12B0705D40023521ED6
:1004E0000DD401F8013BFAE710F8013BCB1A921C3E
:1004F00003E013F8015B01F8015B521EF9D5A1423C
:10050000D8D3002070BD00004A494A6822F4403226
:100510004A604A6843681A434A6001684A6822F49C
:1005200080724A6001684A68036942EA03224A60AD
:1005300001684A6822F040724A6001684A6883682C
:100540001A434A6001688A6822F400628A6001687E
:100550008A68C3681A438A60816A6FF07062D14208
:1005600014D001688A6822F070628A6001688A6823
:10057000836A1A438A6001688A6822F040528A605E
:1005800001688A68C36A1A438A6009E001688A6858
:1005900022F070628A6001688A6822F040528A60A4
:1005A00001688A6822F002028A6001688A68037E14
:1005B00042EA43028A6090F8201089B101684A68D3
:1005C00042F400624A6001684A6822F460424A606C
:1005D00001684A68436A5B1E42EA43324A6004E0AB
:1005E00001684A6822F400624A600168CA6A22F41B
:1005F0007002CA620168CA6A838B5B1E42EA0352B8
:10060000CA6201688A6822F400728A6001688A6896
:1006100090F8303042EA43228A6001688A6822F406
:1006200080628A6001688A68406942EA8020886046
:10063000704700000023014004F0D0BA04F064BB0E
:10064000FFF732BEF0EE400AF5EEC00AF1EE10FA06
:1006500002DDB0EE600A7047B1EE600AFBE7000011
:10066000002803D09FED020A80ED000A70470000C9
:1006700000000000002803D0B3EE060A80ED000A57
:100680007047000070B52DED0C8B84B006460C460B
:1006900015469FED990AF0EE408A9FED970AB0EE5D
:1006A000409A9FED950AF0EE40BA9FED930AF0EE66
:1006B000409A9FED910AB0EE40AA0EB104B11DB967
:1006C00004B0BDEC0C8B70BD8C48FFF7C9FF8C48A3
:1006D000FFF7D0FF8A48D0ED000A9FED8A1A60EE3E
:1006E000810AB0EE600A00F025F9F0EE408A28EEAB
:1006F000A80AF0EE408A8248D0ED000AB0EE001A57
:1007000060EE810A9FED7F1A60EE810AB0EE600A0A
:1007100000F010F9B0EE409A29EE090AB0EE409AC6
:10072000DFED790AB7EE000A00EEA80ADFED770ADE
:1007300000EEC90ADFED760A20EE200A754880ED4A
:10074000000A6E4890ED000ADFED730A80EE201A71
:10075000B7EE000A31EE000A20EE000A6D48D0ED37
:10076000000A80EE801A6D4880ED001A94ED000AB0
:10077000B5EEC00AF1EE10FA0DD194ED010AB5EE16
:10078000C00AF1EE10FA06D194ED020AB5EEC00AE5
:10079000F1EE10FA46D09FED580AB0EE408A0020E4
:1007A000019002900390D4ED000A60EEA00A94ED4F
:1007B000011AD4ED011A41EE210A94ED021AD4ED8A
:1007C000021A41EE210AB0EE600A00F0A9F8B0EE7C
:1007D000408A94ED000A20EE080A8DED010A94ED9E
:1007E000010A20EE080A8DED020A94ED020A20EEBD
:1007F000080A8DED030ADDED010AF1EE600AB0EEA4
:10080000600AFFF719FFF0EE409A9DED031AF0EE33
:10081000410A9DED021AB0EE410AFFF70FFFB0EE5C
:1008200040AA07E09FED340AF0EE409A9FED320AAD
:10083000B0EE40AA95ED000AB5EEC00AF1EE10FA4E
:100840000DD195ED010AB5EEC00AF1EE10FA06D110
:1008500095ED020AB5EEC00AF1EE10FA3CD0B0EE0A
:10086000690A00F067F8B0EE408AB0EE690AFFF757
:10087000E7FEB0EE40DAB0EE4A0A00F05BF8F0EEC8
:1008800040AAB0EE4A0AFFF7DBFEB0EE40BA28EE0F
:100890002A0AD5ED010A20EE200AD5ED000A0DEE58
:1008A000200A68EE0B0A95ED021A00EE810AB0EEFE
:1008B00040CA95ED010A20EE0B0AD5ED020A0AEEB8
:1008C000E00AF0EE40CAF0EE6C0AB0EE4C0AFFF718
:1008D000B5FEF0EE40BA03E09FED070AF0EE40BA35
:1008E000B0EE4A1AF0EE690AB0EE6B0A304604F038
:1008F00089FD00BFE4E600000000000024020020A3
:100900002802002035FA8E3CC1BFAD3B9DF8C536AC
:100910002F7C1C412C020020506CC24A3002002067
:1009200010B504F047FBB7EE001AC1EE000AB0EEB6
:10093000600A10BDFFF7F4BC2DE9F0412DED028BEC
:100940009AB00546B0EE408A0E46174698460020FB
:100950001790189019901490159016904DB146B1BB
:100960003FB1B8F1000F04D0B5EEC08AF1EE10FA35
:1009700005D100201AB0BDEC028BBDE8F08196EDE8
:10098000000A8DED170A96ED010A8DED180A96ED15
:10099000020A8DED190A97ED000A8DED140A97ED04
:1009A000010A8DED150A97ED020A8DED160A17AAB8
:1009B00014A9284604F05AFB402104A8FFF734FD8F
:1009C00000200090019002900390002417A904A831
:1009D00007F0A2F900BF30E004A800EB041090ED8E
:1009E000000AD5ED000A20EE200A04A800EB04104E
:1009F000D0ED010A95ED011A00EE810A04A800EB82
:100A00000410D0ED020A95ED021A00EE810A04A846
:100A100000EB0410D0ED030A95ED031A00EE810AF5
:100A200020EE080AF0EE000A80EE201A684600EB7D
:100A3000840080ED001A601CC4B2042CCCDB0024BE
:100A400010E005EB840090ED000A684600EB84009E
:100A5000D0ED000A30EE200A05EB840080ED000A9C
:100A6000601CC4B2042CECDB284606F04FFD0120CC
:100A700080E700002DE9F04190460D4606462DED39
:100A8000028B1C4600270E2258493B2006F0F2F943
:100A9000F80040EA5730B0F5806F01DBA0F5006048
:100AA00000EE100AB3EE058ADFED518AF8EEC00AB7
:100AB000B0EE480A4F4800EEA80A88ED000A06F09A
:100AC000C1F84C494948583924388A6D8263B1F8D5
:100AD0005C1000F132028187B2F9060000EE100AC4
:100AE000F8EEC00A9FED440A60EE800AC4ED010AE8
:100AF000B2F9080000EE900A3C48F8EEE00A20EE59
:100B0000800A84ED020A9FED3D0A84ED010A84ED1E
:100B1000020A84ED030A018849BA0BB213804188A6
:100B200000EE103A49BA51808188F8EEC00A49BAFD
:100B30009180C1889FED320A49BA91810189578B12
:100B400049BA44898089C91BD181918B64BA611AE1
:100B50001182D18B40BA60EE800A401A5082C5EDF6
:100B6000000AB2F9020000EE900AF8EEE00A60EE28
:100B7000800AC5ED010AB2F9040000EE900AF8EE11
:100B8000E00A20EE800A85ED020AB2F90E0000EEBE
:100B9000100AF8EEC00A9FED1B0A60EE800AC6ED4F
:100BA000000AB2F9100000EE900AF8EEE00A60EEDA
:100BB000800AC6ED010AB2F9120000EE900AF8EEC2
:100BC000E00A20EE800A86ED020AB2F90C0000EE7F
:100BD000100AB8EEC00AC0EE280A30EE880A88ED86
:100BE000000ABDEC028BBDE8F08100008408002003
:100BF0005CEFA643700000209A99993E0000000027
:100C00003830953B58A08B3AFEE70000014800F0D1
:100C1000D0BD0000D4040020014800F0CABD00008F
:100C2000FC0400200C4908B54FF4E0600860002087
:100C300008228860C1E9030208496B460A46087029
:100C400048708870C870087148718871C87102490D
:100C5000034800F0E1FB08BDE046002085010020CC
:100C6000FC04002038B50E4C40F2FF15256000252D
:100C7000A560E560082525610A4C050A25706070AD
:100C8000080AA070E170100A20716271180AA07140
:100C9000E3716B4622460249034800F0BDFB38BDB4
:100CA000C84600207D010020D4040020014801F046
:100CB00039B8000020070020014801F033B80000D7
:100CC0008007002001680A4BCAB2103AA3FB023227
:100CD0001209084B9B5CC365032A04D96FF3090111
:100CE000091D816502E06FF309018165806D704720
:100CF000ABAAAAAAD0850008014600208A6A8B699F
:100D0000002B0FD0B3F5005F1DD08AB3012A30D07D
:100D1000022A2ED0032A04D1C96A11F0807F00D0A4
:100D2000012070471AB1012A07D0022AF9D1C96AF5
:100D300011F0807FF5D001207047C96AB1F1C07F02
:100D4000FAD1012070475AB1012A0BD0022A07D0EC
:100D5000032AF7D1C96AB1F1C07FF3D101207047EE
:100D600001207047C96A11F0807FFAD001207047D6
:100D7000FFE7012070477047FEE7000000220029CE
:100D800005D001291DD002291ED04FF440720B2836
:100D900000D9001D0E490B6823F440730B600B68EB
:100DA0001A430A600A6822F0F8020A600A680223FD
:100DB00043EAC00010430860086840F480300860CF
:100DC00070474FF48072E2E74FF40072DFE70000F3
:100DD000103C02401448016811F4007F0FD00168F4
:100DE00021F400710160016841F400610160016853
:100DF00021F400610160016841F400710160016843
:100E000011F4806F0FD0016821F4806101600168E6
:100E100041F480510160016821F480510160016852
:100E200041F4806101607047003C02400F4A136842
:100E300023F44073136003290DD0012911D01168E8
:100E400041F40041116011684FF4803343EA0020FF
:100E5000084310607047116848F204031943116099
:100E6000F1E7116841F004011160ECE7103C024029
:100E7000064A136823F44073136013681360136801
:100E800043F001031360017070470000103C024002
:100E90000B49D1F800C02CF4407CC1F800C0D1F857
:100EA00000C04CF4407CC1F800C0D1F800C04CF048
:100EB000010CC1F800C00260BFF36F8F4360704740
:100EC000103C0240074A136823F440731360136810
:100ED00043F480731360136843F0010313600180CF
:100EE00070470000103C0240074A136823F4407327
:100EF0001360136843F400731360136843F0010335
:100F00001360016070470000103C02401F490868F0
:100F100010F0100F1E4805D0C26942F01002C261E5
:100F200010220A600A6812F0200F05D0C26942F050
:100F30000802C26120220A600A6812F0400F05D040
:100F4000C26942F00402C26140220A600A6812F0DB
:100F5000800F05D0C26942F00202C26180220A609D
:100F60000A6812F4807F06D0C26942F00102C261B1
:100F70004FF480720A600A6812F0020F05D0C2694D
:100F800042F02002C2610220086070470C3C02401F
:100F90006009002070B5044614490020C86101F0C2
:100FA0002BFA0646124D286810F4803F0ED0B4F19B
:100FB000FF3F07D024B101F01FFA801BA04201D9E6
:100FC000032070BD286810F4803FF0D1286810F02D
:100FD000010F01D001202860286810F4F97F03D0A8
:100FE000FFF794FF012070BD002070BD6009002054
:100FF0000C3C024038B44FF0000CCDF800C090F823
:101000003C20012A1BD0012280F83C200A680724DA
:10101000092A17D90368DD680A3A02EB420204FA8A
:1010200002F225EA0202DA600A788B680A3A02EBD9
:10103000420293400268D4682343D36014E038BC72
:101040000220704703681D6902EB420204FA02F2B3
:1010500025EA02021A610A788B6802EB4202934089
:1010600002681469234313614A681F24072A15D2B2
:1010700003685D6B521E02EB820204FA02F225EA5B
:1010800002025A630A8893B20A79521E02EB820264
:1010900093400268546B234353632CE00D2A15D20E
:1010A00003681D6BD21F02EB820204FA02F225EAEA
:1010B00002021A630A8893B20A79D21F02EB8202F3
:1010C00093400268146B2343136314E00368DD6AE2
:1010D0000D3A02EB820204FA02F225EA0202DA6217
:1010E0000A8893B20A790D3A02EB820293400268B1
:1010F000D46A2343D3621D4A1D4B04689C420AD123
:101100000C68122C07D1546824F40004546054680D
:1011100044F48004546004689C4221D1154C0B684F
:10112000A34201D0112B1BD1536823F480035360D9
:10113000536843F4000353600968A14210D10E497B
:101140000E4A0968B1FBF2F101EB810149000091FF
:10115000009929B10099491E009100990029F9D1FF
:1011600080F83CC038BC00207047000000230140DC
:101170000020014012000010FC00002040420F003F
:101180000068C06C704770B504460025002C03D081
:10119000206C002610B107E0012070BD204600F051
:1011A0001DF8666484F83C60206C10F0100F04D0C9
:1011B000012584F83C60284670BD206C20F48850DE
:1011C00040F0020020642046FFF79EF96664206C20
:1011D00020F0020040F001002064EAE708B5006852
:1011E0000649884208D10648016841F480710160CF
:1011F000006800F48070009008BD000000200140ED
:10120000443802402DE9F04104460D4620688168CB
:101210004FF0000711F4806F0CD0806810F4807FCD
:1012200008D0206C40F02000206484F83C7001203D
:10123000BDE8F08101F0E0F806462068006810F093
:10124000020F12D1B5F1FF3F0AD025B101F0D4F859
:10125000801BA84204D92068006810F0020F12D049
:101260002068006810F0020FECD021686FF01200C7
:101270000860206C40F4007020642068816811F0E0
:10128000405F09D01EE0206C40F00400206484F828
:101290003C700320BDE8F081217E99B9C16A11F448
:1012A000700F03D0806810F4806F0BD1206C20F495
:1012B00080702064206C10F4805F03D1206C40F0BB
:1012C000010020640020BDE8F081000081B0002210
:1012D000009290F83C10012908D0012180F83C10C0
:1012E00001688B6813F0010F03D016E0022001B0F3
:1012F00070478B6843F001038B603949394B0968AB
:10130000B1FBF3F101EB41010091009929B1009982
:10131000491E009100990029F9D101688B6813F0EA
:10132000010F52D0036C23F0010323F4C06343F494
:10133000807303644B6813F4806F05D0036C23F44F
:10134000005343F480530364036C13F4805F04D0B0
:10135000436C23F00603436400E0426480F83C20C1
:10136000214A6FF022030B60516811F01F0F1F49D3
:1013700007D00068884230D1816811F0405F1FD0EB
:101380002BE00068884212D0194A904204D1D1F86B
:10139000042312F01F0F0AD0A0F18042B2F591325F
:1013A0001BD1D1F8041301F01F01102915D2816857
:1013B00011F0405F11D1816841F0804181600CE003
:1013C000816841F08041816007E0016C41F01001CB
:1013D0000164416C41F001014164002001B070479B
:1013E000FC00002040420F0000230140002001408B
:1013F0000021014090F82020012A07D0022A05D0C0
:10140000416A41F4802141620120704700684269CD
:10141000114341610020704770B490F82040D0F82B
:1014200000C0DCF808C0012C08D0022C06D0416AAC
:1014300041F48021416270BC012070470CF080644F
:101440000CF000652C4302D11CF0805F5FD0CCF320
:10145000016CBCF1020F06D9416A41F400014162FE
:1014600070BC01207047012404FA0CF41C608B68E6
:101470004FF4C0749BB1CD6804EB0C162B434D6840
:1014800043EAC5030568AB514FF4C273066803EB2A
:101490000C130D69F550097D012909D00DE00D8867
:1014A000CB6804EB0C1643EA45530568AB51EBE7F8
:1014B0000168CD5845F48075CD501179D3795579AF
:1014C00041EA036193791B0443EA052319434FF46E
:1014D000C675036805EB0C1559511178D37841EAAC
:1014E0000361937852781B0443EA022211434FF4BC
:1014F000C473026803EB0C13D150016804EB0C10A9
:101500000A5842F001020A5070BC00207047416A3C
:1015100041F40011416270BC0120704790F8202016
:10152000012A07D0022A05D0416A41F48021416294
:10153000012070474248D0F8002242F00102C0F872
:101540000022D0F8002222F47C52C0F80022D0F809
:1015500000224B6A42EA0322C0F800220A7D0123DE
:1015600002F01F0203FA02F2D0F81C329343C0F8D3
:101570001C32CB69D3B9D0F80C329343C0F80C328B
:10158000B1F80CC04B686CF31F43D1F814C000EBEA
:10159000CC0CCCF84032B1F808C00B686CF31F4398
:1015A000D1F814C000EBCC0CCCF84432CB69012B41
:1015B0001AD1D0F80C321343C0F80C32B1F800C085
:1015C0004B686CF31F43D1F814C000EBCC0CCCF883
:1015D0004032B1F808C0CB686CF31F43D1F814C097
:1015E00000EBCC0CCCF844328B697BB1D0F80432E0
:1015F0001343C0F804320B6973B1D0F814321343AB
:10160000C0F81432096A01290CD010E0D0F8043275
:101610009343C0F80432EEE7D0F814329343C0F895
:101620001432EFE7D0F81C121143C0F81C12D0F8A6
:10163000001221F00101C0F80012002070470000E4
:1016400000640040704710B490F820C0BCF1010F56
:1016500009D0BCF1020F06D0416A41F480214162F9
:1016600010BC0120704739B1D0F800C0DCF810C0C0
:101670001CF0030F7DD006E0D0F800C0DCF80CC0F1
:101680001CF0030F7BD04FF4D87C04680CEB011CDA
:1016900054F80C4004F004049460002C7DD00468DD
:1016A00054F80C40E4085460046854F80CC00CF082
:1016B000020CC2F80CC04FF4DA7C04680CEB011C7D
:1016C00054F80C4004F00F041461046854F80C4002
:1016D000C4F307249461046854F80CC04FEA1C4C0E
:1016E000C2F814C04FF4DC72D0F800C002EB011253
:1016F0005CF802C083F800C0D0F800C05CF802C0FB
:101700004FEA1C2C83F801C0D0F800C05CF802C07E
:101710004FEA1C4C83F802C0D0F800C05CF80220ED
:10172000120EDA704FF4DE72D0F800C002EB011234
:101730005CF802C083F804C0D0F800C05CF802C0B6
:101740004FEA1C2C83F805C0D0F800C05CF802C03A
:101750004FEA1C4C83F806C0D0F800C05CF80220A9
:10176000120EDA71F9B10068016941F020010161DE
:1017700002E00BE003E010E010BC00207047416A7B
:1017800041F40011416210BC01207047416A41F4EC
:101790000011416210BC01207047046854F80C40ED
:1017A000640D146080E70068C16841F02001C160E9
:1017B000DEE72DE9F05F0546002428684669D0F889
:1017C00004908768D0F80CA0D0F810B0D0F818803A
:1017D00016F0010F54D017F0010F17D001218160CE
:1017E00017F0020F03D0284600F096FA0EE017F02B
:1017F000040F02D04FF4006408E017F0080F02D085
:101800004FF4805402E0284600F085FA17F4807FF8
:1018100019D029684FF48070886017F4007F03D0D6
:10182000284600F07BFA0EE017F4806F02D044F4F3
:10183000005408E017F4006F02D044F4804402E042
:10184000284600F06AFA17F4803F19D029684FF44F
:101850008030886017F4003F03D0284600F060FA1B
:101860000EE017F4802F02D044F4004408E017F48F
:10187000002F02D044F4803402E0284600F04FFAF2
:1018800016F0080F07D01AF0100F04D044F40074BB
:1018900029681020C86016F0040F4FF0080707D021
:1018A0001AF0080F04D02868C760284600F0CEF967
:1018B00016F0020F07D02868C06810F0030F02D09E
:1018C000284600F0C5F916F0400F07D01BF0100FA6
:1018D00004D044F4806429681020086116F0200FB9
:1018E00007D01BF0080F04D028680761284600F0D5
:1018F000DDF916F0100F07D02868006910F0030F0B
:1019000002D0284600F0D3F916F4003F08D019F0B1
:10191000100F05D0296810204860284600F0C8F94B
:1019200016F4803F07D019F0080F04D028684760EC
:10193000284600F0F6F916F4004F4AD019F0040FCB
:1019400044D016F4807F04D018F0010F01D044F089
:10195000010416F4007F04D018F0020F01D044F007
:10196000020416F4806F04D018F0040F01D044F084
:10197000040416F4006F29D018F0700F26D008F078
:101980007000402815D006DC102809D020280AD085
:10199000302816D10AE050280ED0602811D10EE070
:1019A00044F008040DE044F010040AE044F0200480
:1019B00007E044F0400404E044F0800401E044F413
:1019C00080742868816921F0700181612968042090
:1019D0004860002C05D0686A204368622846FFF7FB
:1019E00031FEBDE8F09F70B50446002C03D094F89A
:1019F000200010B104E0012070BD204600F0A8F8DE
:101A00002068016841F00101016000F0F5FC054625
:101A1000206840684FF0050610F0010F11D100F06A
:101A2000EBFC401B0A2807D9606A40F40030606272
:101A300084F82060012070BD2068406810F0010F1C
:101A4000EDD02068016821F00201016000F0D4FCB3
:101A500005462068406810F0020F11D000F0CCFC61
:101A6000401B0A2807D9606A40F40030606284F89D
:101A70002060012070BD2068406810F0020FEDD199
:101A8000207E01283FD02068016821F0800101609C
:101A9000607E01283DD02068016821F0400101608E
:101AA000A07E01283BD02068016821F02001016060
:101AB000E07E012839D02068016841F01001016002
:101AC000207F012837D02068016821F008010160DB
:101AD000607F012835D02068016821F00401016091
:101AE000E168A0686269084321691143084361689D
:101AF000491E08432168C86100206062012084F803
:101B00002000002070BD2068016841F08001016064
:101B1000BEE72068016841F040010160C0E720682D
:101B2000016841F020010160C2E72068016821F0EE
:101B300010010160C4E72068016841F008010160FC
:101B4000C6E72068016841F004010160C8E70000B1
:101B5000F0B587B0044614216846FEF765FC364BA5
:101B60003648DFF8D0E01968D4F800C0334A0325BE
:101B70000226092710300024491CF44522D119609F
:101B8000012907D1016841F000710160006800F08F
:101B900000700590106840F0080010601068CDE9F2
:101BA000005600F00800CDE9047069462448CDE9EC
:101BB000024500F0F3FA00220521142000F090FC09
:101BC000142033E0DFF87CE0F44531D1D0F800C0D8
:101BD0004CF0806CC0F800C0D0F800C001290CF0B7
:101BE000806CCDF814C0196007D1016841F0007114
:101BF0000160006800F000700590106840F002007D
:101C00001060106802AB00F0020005904FF44050E5
:101C1000CDE9000683E8B00069460B4800F0BEFA43
:101C200000220521402000F05BFC402000F04AFC2F
:101C300007B0F0BD006400401400002030380240BE
:101C4000000C0240006800400004024070470000A1
:101C500000B58BB001AB03AA0021FFF7F4FC039899
:101C6000A0F2012006281AD80E49C0B200EB80026B
:101C700008700D4901EB420031F812300381BDF8C4
:101C800004305BBA21F81230BDF8061049BA418021
:101C9000BDF8081049BA81809DF80A1081710BB017
:101CA00000BD00007C010020804600207047704786
:101CB000704770B5044694F82000012805D0606A8A
:101CC00040F400206062012070BD022084F82000F2
:101CD0002068016821F00101016000F08DFB0546DC
:101CE0002068406810F0010F12D000F085FB401B07
:101CF0000A2808D9606A40F400306062052084F840
:101D00002000012070BD2068406810F0010FECD168
:101D10000020606270BD7047704770477047704721
:101D2000704770472DE9F84304464FF00008CDF89E
:101D3000008076484FF416510068B0FBF1F7A56DAE
:101D40002E6894F85C00082101FA00F0304211D0AE
:101D50002068026812F0040F0CD0026822F004021E
:101D6000026094F85C0001FA00F0A860606D40F039
:101D70000100606594F85C004FF0010909FA00F079
:101D8000304209D02168496911F0800F04D0A86061
:101D9000606D40F00200606594F85C10042088409B
:101DA000304209D02168096811F0020F04D0A86000
:101DB000606D40F00400606594F85C10102088406D
:101DC000304224D02168096811F0080F1FD0A860A4
:101DD0002068016811F4802F0DD0006810F4002FE6
:101DE00004D0A16C99B12046884710E0216C71B1F4
:101DF000204688470BE0016811F4807F03D1016819
:101E000021F008010160216C09B12046884794F84F
:101E10005C1020208840304251D02168096811F0C0
:101E2000100F4CD0A86094F8350005280DD020681C
:101E3000016811F4802F32D0006810F4002F29D0EF
:101E4000E16B59B32046884739E02068016821F0EA
:101E5000160101602068416921F080014161206C18
:101E600008B9A06C20B12068016821F00801016068
:101E700094F85C003F2101FA00F0A86084F83590E6
:101E800084F83480216D00293ED001B02046BDE8A1
:101E9000F0430847616C09B1204688470FE00168AC
:101EA00011F4807F07D1016821F01001016084F8EE
:101EB000359084F83480E16B09B120468847606D25
:101EC000002821D0606D10F0010F15D0052084F896
:101ED00035002068016821F0010101600098401C74
:101EE0000090B84204D82068006810F0010FF5D1C6
:101EF00084F8359084F83480E16C002904D001B076
:101F00002046BDE8F0430847BDE8F883FC00002008
:101F10002DE9F041044600F06FFA0546DCB10220DD
:101F200084F83500002684F834602068016821F0C8
:101F3000010101602068006810F0010F13D000F06B
:101F40005BFA401B052809D920206065032084F82E
:101F50003500BDE8F0810120BDE8F081206800680F
:101F600010F0010FEBD121680868234A1040A368E4
:101F70006268D4F810C01A43E36843EA0C031A43BA
:101F800063691A43A3691A43E3691A43236A1A432C
:101F90001043626A042A03D1236BE26A1A43104396
:101FA00008602068406920F00701606A40EA010586
:101FB000012704280ED1A06A0543E06A50B12046EB
:101FC000FEF79AFE30B14020606584F8357001203C
:101FD000BDE8F081206845612046FEF773FE94F865
:101FE0005C103F2202FA01F18160666584F8357069
:101FF0000020BDE8F08100003F8010F070B504467D
:1020000000F0FAF90546B4F1FF3F02D00448007829
:10201000044400F0F1F9401BA042FAD370BD000067
:10202000F00000202DE9F04104460F46DFF89C80C7
:1020300098F8180001280AD0012088F818004CF2FE
:102040005030FEF7A7FF0246100003D037E0022011
:10205000BDE8F0814FF0FF30386020681C4E012849
:1020600015D0A568E0682844A84226D9217C2846D6
:10207000FEF784FE4CF25030FEF78CFF02463068CB
:1020800020F0FA003060100011D03D6015E0207C97
:102090006168FEF7CBFE4CF25030FEF77BFF024644
:1020A000306820F0040020F40040306005E06D1C32
:1020B000A168E0680844A842D8D8FEF78BFE00204B
:1020C00088F818001046BDE8F08100006009002083
:1020D000103C02400348016841F0004101600020CB
:1020E00070470000103C02402DE9F041064688464A
:1020F00014461D461A4F387E012807D00120387635
:102100004CF25030FEF746FF18B115E00220BDE852
:10211000F081AEB1012E18D0022E1BD022462B46E4
:102120004046FEF7B5FE4CF25030FEF733FF0D4946
:102130000A6822F001020A6000213976BDE8F081C8
:10214000E1B24046FEF794FEEDE7A1B24046FEF74D
:10215000B9FEE8E721464046FEF7C6FEE3E7000089
:1021600060090020103C0240002008490A6812F073
:10217000004F09D0074A064B1360074B13600968EC
:1021800011F0004F00D0012070470000103C0240C9
:1021900023016745043C0240AB89EFCD2DE9F84FA0
:1021A0000022DFF82C92DFF82CE2DFF82CA24FF0AF
:1021B000010B03274FF00F080BFA02FC0B6803EA30
:1021C0000C0363457AD10C7904F00304012C01D08F
:1021D000022C14D18568540007FA04F6B543CE6882
:1021E00006FA04F42C438460446824EA0C0C0C794D
:1021F000C4F30014944044EA0C0CC0F804C0D1F8B5
:1022000004C037EA0C0C0CD0C4684FEA420C07FA41
:102210000CF5AC438D6805FA0CFC4CEA040CC0F8D4
:102220000CC091F804C00CF0030CBCF1020F12D1E9
:102230004FEAD20C00EB8C04256A4FEA427C4FEA4D
:10224000DC6C08FA0CF6B5430E6906FA0CFC4CEA95
:10225000050CC4F820C004684FEA420C07FA0CF5DC
:10226000AC430D7905F0030505FA0CFC4CEA040CAF
:10227000C0F800C0D1F804C01CF4403F1ED0D9F80B
:1022800000C04CF4804CC9F800C0D9F800C00CF470
:10229000804CCDF800C022F0030C0CF1804505F510
:1022A0009835D5F808C89407240F08FA04F62CEAE4
:1022B0000606704503D14FF0000C2FE067E0A0F157
:1022C000804CBCF5013C68D0A0F1804CBCF5023CD0
:1022D00066D0A0F1804CBCF5033C64D0A0F1804CEA
:1022E000BCF5043C62D0A0F1804CBCF5053C60D04C
:1022F000A0F1804CBCF5063C5ED0A0F1804CBCF552
:10230000073C5CD0A0F1804CBCF5083C5AD0A0F151
:10231000804CBCF5093C58D04FF00A0C0CFA04FC78
:102320004CEA060CC5F808C8DAF800C02CEA030C21
:102330004C6814F4801F01D04CEA030CCAF800C0AA
:10234000264CD4F800C02CEA030C4D6815F4001F8D
:1023500001D04CEA030CC4F800C0214CD4F800C0F2
:102360002CEA030C4D6815F4003F01D04CEA030C35
:10237000C4F800C01B4CD4F800C02CEA030C4D6814
:1023800015F4803F01D04CEA030CC4F800C0521C85
:10239000102AFFF411AFBDE8F88F4FF0010CBDE734
:1023A0004FF0020CBAE74FF0030CB7E74FF0040C04
:1023B000B4E74FF0050CB1E74FF0060CAEE74FF075
:1023C000070CABE74FF0080CA8E74FF0090CA5E7A6
:1023D0004438024000000240083C01400C3C0140EF
:1023E000043C0140003C0140002A01D0816170475B
:1023F000090481617047000001488068704700004F
:10240000F000002002488168027811448160704722
:10241000F000002010B50B48016841F40071016024
:10242000016841F480610160016841F480710160DC
:10243000032000F089F80F2000F006F800F026F8DD
:10244000002010BD003C024070B504460D4D4FF415
:102450007A712878B1FBF0F00B490968B1FBF0F014
:1024600000F072FD08B1012070BD102C07D20022CF
:102470002146501E00F034F86C60002070BD012031
:1024800070BD0000F0000020FC0000200C4882B06D
:10249000016841F480410160006800F480400090D0
:1024A0000748001F016841F0805101600068002268
:1024B00000F0805000900F21901E02B000F010B884
:1024C0004438024000280ADB00F01F01012202FA12
:1024D00001F14009800000F1E020C0F800117047D0
:1024E00010B4184B1B68C3F30223C3F1070CBCF1F3
:1024F000040F01D94FF0040C1C1D072C01D200233E
:1025000000E0DB1E012404FA0CFCACF1010C0CEA27
:102510000101994004FA03F35B1E1A40114300289D
:1025200006DB00F1E020090180F8001410BC7047C0
:1025300000F00F0000F1E020090180F8141D10BC2C
:10254000704700000CED00E000F00700064A11683B
:102550004FF6FF03194041EA002040F0FD7040F0C3
:1025600080601060704700000CED00E02DE9F0473E
:1025700004460D46002C13D0DFF85491D9F8000022
:10258000EFB200F00F00A8420DD289F80070D9F820
:10259000000000F00F00A84205D00120BDE8F08740
:1025A0000120BDE8F08720684A4E10F0020F14D0D9
:1025B00010F0040F03D0306840F4E0503060207811
:1025C00010F0080F03D0306840F46040306030688D
:1025D000A16820F0F00008433060207810F0010F6F
:1025E0003ED060683C49012808D002280DD003285D
:1025F0000BD0096811F0020F28D00AE0096811F425
:10260000003F06D10120BDE8F087096811F0007F86
:1026100019D0316821F0030108433060FFF7ECFE68
:1026200080463068616800F00C00B0EB810F17D075
:1026300041F2883AFFF7E0FEA0EB0800504508D9C8
:102640000320BDE8F0870120BDE8F0870120BDE848
:10265000F0873068616800F00C00B0EB810FE9D1C1
:10266000D9F8000000F00F00A8420AD989F80070DC
:10267000D9F8000000F00F00A84202D00120BDE808
:10268000F087207810F0040F05D03068E16820F45E
:10269000E05008433060207810F0080F06D0306812
:1026A000216920F4604040EAC100306000F042F847
:1026B00031680A4AC1F30311515CC84008490860F7
:1026C00008480068FFF7C0FE0020BDE8F087000062
:1026D000003C02400838024000380240D88500081B
:1026E000FC000020F4000020014800687047000052
:1026F000FC00002000B5FFF7F7FF04490968044A11
:10270000C1F38221515CC84000BD0000083802407E
:10271000E885000800B5FFF7E7FF04490968044AA7
:10272000C1F34231515CC84000BD0000083802408E
:10273000E885000810B51748006810F00C0116482D
:1027400016D0164B042912D0082911D1144C216837
:1027500001F03F02216811F4800F0AD02068C0F315
:102760008810A0FB03010023FDF714FE09E01846C2
:1027700010BD21680023C1F38811A1FB0001FDF702
:1027800009FE2168C1F30141491C4900B0FBF1F089
:1027900010BD0000083802400024F400001BB70000
:1027A000043802402DE9F84F0446002C12D020785E
:1027B000FB4E10F0010FA6F1040563D0301D016837
:1027C00001F00C0104290CD0006800F00C0008286E
:1027D00003D010E00120BDE8F88F306810F4800FBE
:1027E00009D0286810F4003F4CD06068002849D117
:1027F0000120BDE8F88F6068B0F5803F14D0B0F5D7
:10280000A02F16D0286820F480302860286820F493
:1028100080202860606810B3FFF7EEFD0746286847
:1028200010F4003F0ED02DE0286840F4803028607E
:10283000F0E7286840F480202860286840F4803061
:102840002860E7E7FFF7D8FDC01B642802D9032002
:10285000BDE8F88F286810F4003FF3D012E0FFF7CE
:10286000CBFD0746286810F4003F0BD0FFF7C4FDEE
:10287000C01B642802D90320BDE8F88F286810F433
:10288000003FF3D12078C74F10F0020F4FF000093E
:1028900057D0C548016811F00C0F14D0006800F043
:1028A0000C00082803D1306810F4800F0BD0E068CA
:1028B00080B301203860FFF79FFD8046286810F044
:1028C000020F12D01EE0286810F0020F05D0E06859
:1028D000012802D00120BDE8F88F2868216920F086
:1028E000F80040EAC10028602BE0FFF785FDA0EB6F
:1028F0000800022802D90320BDE8F88F286810F0EC
:10290000020FF2D02868216920F0F80040EAC100E7
:10291000286016E0FFE7C7F80090FFF76DFD8046DE
:10292000286810F0020F0CD0FFF766FDA0EB08003E
:10293000022802D90320BDE8F88F286810F0020FA2
:10294000F2D1207810F0080F35D09848DFF860A257
:102950006169C1B101210160FFF74EFD8046DAF8DF
:10296000000010F0020F26D1FFF746FDA0EB080093
:10297000022802D90320BDE8F88FDAF8000010F031
:10298000020FF1D017E0C0F80090FFF735FD804648
:10299000DAF8000010F0020F0DD0FFF72DFDA0EBCC
:1029A0000800022802D90320BDE8F88FDAF80000F9
:1029B00010F0020FF1D1207810F0040F71D04FF019
:1029C00000087C48006810F0805F0AD179480168EF
:1029D00041F080510160006800F0805000904FF09D
:1029E0000108DFF8D4B1DBF8000010F4807F1BD1C0
:1029F000DBF8000040F48070CBF80000FFF7FCFC2F
:102A00008246DBF8000010F4807F0DD1FFF7F4FC64
:102A1000A0EB0A00022802D90320BDE8F88FDBF8FA
:102A2000000010F4807FF1D0A068DFF890B1012899
:102A300018D005281DD0DBF8000020F00100CBF8ED
:102A40000000DBF8000020F00400CBF80000A068D4
:102A500040B3FFF7D1FC8246DBF8000010F0020F14
:102A600014D03EE0DBF8000040F00100CBF800009D
:102A7000EDE7DBF8000040F00400CBF80000DBF8E5
:102A8000000040F00100CBF80000E0E7FFF7B4FCE5
:102A9000A0EB0A0141F28830814204D90320BDE84D
:102AA000F88F26E005E0DBF8000010F0020FEDD013
:102AB00017E0FFF7A1FC8246DBF8000010F0020FE0
:102AC0000FD0FFF799FCA0EB0A0141F28830814258
:102AD00002D90320BDE8F88FDBF8000010F0020FE8
:102AE000EFD1B8F1010F04D13248016821F08051D3
:102AF0000160A069F0B32C4909684FF0FF3801F07C
:102B00000C01082966D0022810D0C7F86090FFF7A2
:102B100073FC0446286810F0007F2BD0FFF76CFC94
:102B2000001B022851D90320BDE8F88FC7F8609038
:102B3000FFF762FC8146286810F0007F0CD0FFF799
:102B40005BFCA0EB0900022802D90320BDE8F88F46
:102B5000286810F0007FF2D1216AE069A26A084378
:102B6000616A08EB5202890141EA0241084394F884
:102B70002C1000E055E040EA01603060012038662A
:102B8000FFF73AFC0446286810F0007F49D1FFF7B0
:102B900033FC001B022813D90320BDE8F88F000086
:102BA000043802400000474208380240800E474285
:102BB00074380240403802400070004070380240D3
:102BC000286810F0007FE2D02BE0286810F0007F2A
:102BD000A4D126E0012822D03068E26900F4800107
:102BE00091421AD1226A00F03F01914215D147F675
:102BF000C071626A0140B1EB821F0ED1A26A00F47B
:102C0000403108EB5202B1EB024F06D194F82C1080
:102C100000F07060B0EB016F03D00120BDE7012030
:102C2000BBE70020B9E770B50446002C09D0606A04
:102C3000002540B125616561A56294F8510040B15D
:102C40000CE0012070BD6068B0F5827FF4D0E561D2
:102C5000F2E784F85050204600F044F8022084F84F
:102C600051002068016821F040010160A08821899D
:102C700000F4827001F404410843A18901F4006169
:102C80000843217C01F002010843217D01F001018C
:102C90000843218B01F400710843217F01F03801C2
:102CA000084394F8201001F080010843218D01F4BD
:102CB0000051084321680860A169042000EA11401E
:102CC00094F8241001F0100101432068416020684D
:102CD000C16921F40061C1616565012084F851007A
:102CE000002070BD10B586B0044614216846FDF77B
:102CF0009BFB14492068884221D1134800210268B7
:102D000042F480120260006800F4801005900E48C2
:102D10001438026842F020020260006800F02000CF
:102D200005904FF4607000900220CDE9010103206E
:102D300003900520049069460448FFF72FFA06B077
:102D400010BD000000500140443802400014024011
:102D50002DE9F84F04460A9E8A4693461F460125F0
:102D60004FF0000894F8500001280ED0012084F89C
:102D70005000FFF741FB814694F85100616801283B
:102D80000ED0B1F5827F07D102E00220BDE8F88FB6
:102D9000A16809B9042803D04FF0020800F0CBB8AD
:102DA000BAF1000F1DD0BBF1000F1AD0380018D0B7
:102DB00094F85100042802D0052084F85100002026
:102DC0006065C4F838B0E787A787C4F830A0E78605
:102DD000A786206460642068016811F0400F03D06A
:102DE00006E04FF00108A6E0016841F040010160F3
:102DF000E068B0F5006F05D06068002848D0012F6A
:102E000046D07EE0606808B1012F3AD1206B21687E
:102E10000088C860206B801C2063E08E401EE08626
:102E20002FE02068816811F0020F0DD0E18E59B1BA
:102E3000012D09D1216B0988C160206B801C2063A2
:102E4000E08E401EE08600252068816811F0010FA9
:102E50000BD0E18F49B1C068A16B0880A06B801CCA
:102E6000A063E08F401EE0870125FFF7C5FAA0EBC5
:102E70000900B04205D3B6F1FF3F02D04FF003087E
:102E800059E0E08E0028CCD1E08F0028C9D13EE087
:102E9000206B216800780873206B401C2063E08E53
:102EA000401EE0862DE02068816811F0020F0DD0F1
:102EB000E18E59B1012D09D1216B09780173206B85
:102EC000401C2063E08E401EE0860025206881685B
:102ED00011F0010F0BD0E18F49B1C068A16B0870F0
:102EE000A06B401CA063E08F401EE0870125FFF728
:102EF00083FAA0EB0900B04202D3B6F1FF3F11D133
:102F000086B1E08E0028CED1E08F0028CBD14A4692
:102F10003146204601F07CFA38B14FF001082020FC
:102F2000606508E04FF0030805E0A06818B9206864
:102F3000C16880680090012084F85100002084F866
:102F400050004046BDE8F88F401EB0F1807F01D3AD
:102F5000012070474FF0E0214861044AF0201070D2
:102F600000208861072008610020704723ED00E001
:102F700030B490F83C20012A44D0012480F83C4031
:102F8000022280F83D200268D2F804C093682CF039
:102F9000700C0D6845EA0C0CC2F804C00268A2F17E
:102FA000804CBCF5803C20D0B2F1804F1DD0A2F106
:102FB000804CBCF5806C18D0A2F1804CBCF5006C44
:102FC00013D0A2F1804CBCF5406C0ED0A2F1804C25
:102FD000BCF5823C09D0A2F1804CBCF5A03C04D0E9
:102FE000A2F1804CBCF5C05C04D123F08003496899
:102FF0001943916080F83D40002180F83C1030BCBE
:103000000020704730BC0220704710B50446002CE9
:1030100003D094F83D0010B107E0012010BD00205E
:1030200084F83C00204600F01FF8022084F83D00A0
:10303000211D206801F00EFB012084F8460084F871
:103040003E0084F83F0084F8400084F8410084F892
:10305000420084F8430084F8440084F8450084F872
:103060003D00002010BD000008B501680B48B1F11B
:10307000804F0BD00A4A914207D1016841F002010A
:103080000160006800F00200009008BD016841F096
:1030900001010160006800F00100F5E740380240DE
:1030A0000004004070B50446002594F83C00012857
:1030B00018D0012684F83C60022084F83D00206886
:1030C000826822F0770222F47F42826008685028EA
:1030D00039D00EDC202854D006DC002851D010282E
:1030E00011D14EE0022070BD30284AD040280AD1CC
:1030F0003DE0602831D070280DD0B0F5805F03D05E
:10310000B0F5005F13D0012584F83D60002084F8FD
:103110003C00284670BDCB684A688968206801F089
:103120000EFB2068816841F077018160ECE7CB6895
:103130004A688968206801F002FB2068816841F4D0
:1031400080418160E0E7CA684968206801F0E6FBD9
:103150005021206801F0FEFAD6E7CA684968206865
:1031600001F0EFFB6021206801F0F4FACCE7CA68B7
:103170004968206801F0D2FB4021206801F0EAFA9A
:10318000C2E722680146104601F0E4FABCE70000FD
:1031900010B586B0044614216846FDF745F923684A
:1031A000002122480222B3F1804F17D0204CA342C5
:1031B00026D1036843F002030360006800F00200B8
:1031C000059020200090CDE90121CDE90312194896
:1031D000694600BFFEF7E2FF06B010BD036843F08A
:1031E00001030360006800F00100059003200090D7
:1031F000CDE901210120CDE9031069460E48E9E738
:103200000E4CA342E8D1036843F0800303600068DA
:1032100000F08000059040200090CDE901210920B8
:10322000CDE9031069460648D4E700003038024073
:10323000000400400004024000000240001800406A
:10324000001C024070B504460D46002694F83C0070
:1032500001280FD0012084F83C006AB1042A1FD055
:10326000082A32D00C2A44D00126002084F83C00E1
:10327000304670BD022070BD2946206801F072FA08
:103280002068816941F0080181612068816921F02D
:1032900004018161206881692A6911438161E4E741
:1032A0002946206801F096FA2068816941F400619E
:1032B00081612068816921F4806181612068816970
:1032C0002A6941EA02218161CFE72946206801F09D
:1032D000BDFA2068C16941F00801C1612068C16977
:1032E00021F00401C1612068C1692A691143C161EB
:1032F000BBE72946206801F0E5FA2068C16941F47E
:103300000061C1612068C16921F48061C1612068E8
:10331000C1692A6941EA0221C161A6E710B50446E4
:10332000002C03D094F83D0010B107E0012010BD3F
:10333000002084F83C00204600F01EF8022084F8AB
:103340003D00211D206801F085F9012084F8460028
:1033500084F83E0084F83F0084F8400084F841007F
:1033600084F8420084F8430084F8440084F845005F
:1033700084F83D00002010BD08B500680649884269
:1033800008D10648016841F040010160006800F082
:103390004000009008BD0000001800404038024086
:1033A00010B50446002909D004290AD008290BD0F9
:1033B00094F8410001280AD0012010BD94F83E0085
:1033C000F8E794F83F00F5E794F84000F2E70220B0
:1033D000D9B3042947D0082948D084F841000122F4
:1033E000206801F09DF9234A20682349904201D0CA
:1033F000884203D1436C43F4004343642068904205
:1034000024D0B0F1804F21D0A0F18042B2F580628B
:103410001CD0A0F18042B2F5006217D0A0F180422A
:10342000B2F5406212D0884210D0A0F18041B1F5CF
:10343000A0310BD0A0F18041B1F5C05106D0016898
:1034400041F001010160002010BD09E0816801F038
:1034500007010629F7D0016841F001010160F2E798
:1034600084F83E00BBE784F83F00B8E784F84000EA
:10347000B5E70000000001400004014070B50446BB
:10348000002C04D094F83D00002510B106E0012086
:1034900070BD84F83C50204600F022F8242084F8C7
:1034A0003D002068C16821F40051C160204601F050
:1034B0005BFA2068016921F490410161206841694B
:1034C00021F02A0141612068C16841F40051C160C6
:1034D0002564202084F83D0084F83E00002070BD63
:1034E0002DE9F04786B0064614216846FCF79CFF9C
:1034F0005C49326800245C480225032708238A427D
:103500001ED1594910310A6842F080420A600968A8
:1035100001F080410591016841F0100101600068EF
:10352000029400F010000590F801CDE90005CDE906
:10353000037369464D48FEF731FE06B0BDE8F087DB
:103540004949DFF82CC114314FF480694FF4403AF7
:1035500062454DD10A6842F010020A60096801F024
:1035600010010591016841F002010160016801F05C
:1035700002010591016841F001010160006802AAA1
:1035800000F0010005908020CDE900054FF007080C
:1035900082E8900169463748FEF700FE4FF400705C
:1035A000CDE9000502AA694682E890013248FEF79B
:1035B000F5FD334D314828604FF00060C5E9010446
:1035C000C5E903496C61AC61C5E9074A28466C62EC
:1035D000FEF79EFC08B1FDF7CFFBB5630022052185
:1035E0002520AE63FEF77CFF2520FEF76BFFA4E7E6
:1035F000DFF890C06245A0D10A6842F020020A605C
:10360000096801F020010591016841F04001016065
:103610000068029400F0400005904FF48440CDE92A
:103620000005CDE9037369461748FEF7B7FD144D51
:1036300012486035603028604FF02060686005F106
:103640000802402082E811026C61AC61C5E9074ABA
:1036500028466C62FEF75CFC08B1FDF78DFB7563D4
:10366000AE636AE700780040303802400010024044
:10367000001001400004024000000240406402408B
:103680002007002000140140001802402DE9F843F3
:1036900004460E4615461F4694F83D00202802D0E9
:1036A0000220BDE8F883C6B1BDB194F83C00012802
:1036B00016D0012084F83C004FF00009C4F8409077
:1036C000212084F83D00FEF797FE8046A584E5841E
:1036D000A068B0F5805F06D007E00120BDE8F88360
:1036E0000220BDE8F883206980B13546002684F8C1
:1036F0003C90E08CB8B143460022802120460097E0
:1037000001F0B0F920B10320BDE8F8830025EEE711
:10371000A5B12168287848606D1CE08C401EE084CB
:10372000E08C0028E7D14346002240212046009744
:1037300001F098F948B10320BDE8F883308821688A
:10374000C0F308004860B61CE7E7202084F83D007D
:103750000020BDE8F883FEE730B505461088154B1C
:103760000C4668B903F10C0090ED000A83ED000AE5
:1037700090ED010A83ED010A90ED020A83ED020A41
:103780000C490C48A03903F051F993ED000A84ED7F
:10379000000A93ED010A84ED010A93ED020A84ED1B
:1037A000020AB7EE000A85ED000A85ED010A85EDF3
:1037B000020A30BDD8080020084891ED000A80EDCB
:1037C000000AD1ED010AC0ED010A91ED021A80ED67
:1037D000021A0C3880EC030A70470000E40800204D
:1037E0002DED068B84B0072003F0A6FB794E02E096
:1037F0000A2003F0A1FB30780028F9D102E0642010
:1038000003F09AFB03F0E2FA0028F8D1724BA3F11F
:103810003802101DCDE90102A2F1100909F10401DD
:10382000FDF728F94B46A3F16402DFF8ACA1A2F141
:103830000C01A1F10C00CDF800A003F01DF9DFEDA3
:10384000670A9FED670A674A002109F1640000F0EA
:1038500049FCA9F16402A2F10C0101F11800FCF786
:1038600011FFA9F17007A7F1180497ED000AA4F160
:103870000C0584ED000AA4F1180885ED000A88ED16
:10388000000A97ED010A002084ED010A85ED010A86
:1038900088ED010A97ED020A84ED020A85ED020A1D
:1038A00088ED020A03F084FB04F012FD4E497065B6
:1038B0001020C8610846FFF7B6F908B1FDF75CFAB9
:1038C00001207070D346CA46B9469FED488ADFEDA5
:1038D000488A9FED489A9FED48AA3F4E903E06F1D8
:1038E0000800DFED469A0390DDE9010257463A4BA6
:1038F000391DFDF7BFF897ED040A03F039F9364B8F
:10390000CDF800B0483BA3F16402A2F10C01A1F193
:103910000C0003F0B1F8D5ED000A2F4BC8ED000AFA
:1039200094ED000AAC3B85ED000A20EE080AA3F1F5
:10393000240202F10C0101F1240000EEA80AD9EDE5
:10394000000A00EE890A84ED000AD5ED010AC8EDEF
:10395000010A94ED011A85ED011A21EE081A99ED7C
:10396000010A00EEA81A00EE091A84ED011AD5ED3D
:10397000020AC8ED020A94ED021A85ED021A21EE40
:10398000080A00EEA80AD9ED020A00EE890A84EDC1
:10399000020AB0EE4A0AFCF7CFFF0F49321D9039F8
:1039A000A1F11000039B02F081F90B49002084393A
:1039B00006EB800292ED000A01EB8002401C20EE33
:1039C000290AC0B2032882ED000AF1D3012003F0D6
:1039D000B3FA89E718000020FC0800200080894520
:1039E00000A08C45B0850008240500205AF8F63F59
:1039F0005D896EBFD5A9183B6F12833A3333654298
:103A00007FB5002415480094019402941249039450
:103A100001604FF40031C0E901140461047680F8BC
:103A200020400F49C0E90A140125C561C46080F82F
:103A300030404561FDF7A7FB08B1FDF79DF9094846
:103A4000CDE90005694602940448FDF7D3FA002841
:103A500001D0FDF791F97FBD002001408C040020CA
:103A60000100000F120000100F4810B50D49016051
:103A70000321416000214FF410228160C0E903124C
:103A80004FF400124261017641768176C17601776A
:103A90004177FDF7A8FF002803D0BDE81040FDF7EF
:103AA0006BB910BD00640040D40400200F4810B56D
:103AB0000D4901600321416000214FF41022816013
:103AC000C0E903124FF4001242610176417681761B
:103AD000C17601774177FDF786FF002803D0BDE866
:103AE0001040FDF749B910BD00680040FC040020FB
:103AF0000D4808B5016841F48001016000680022AA
:103B000000F48000009005213A20FEF7E9FC3A20FD
:103B1000FEF7D8FC002205214520FEF7E1FCBDE8B8
:103B200008404520FEF7CEBC3038024010B5A4B0A6
:103B30001C221C496846FCF75EFC0021684603F025
:103B400008FA194C17491C2220611C3107A8FCF700
:103B500052FC002107A803F0FCF9124920601C2246
:103B600038310EA8FCF747FC00210EA803F0F1F94C
:103B70000C4960601C22543115A8FCF73CFC002164
:103B800015A803F0E6F90749A0601C2270311CA8B3
:103B9000FCF731FC00211CA803F0DBF9E06024B045
:103BA00010BD000024850008000000202DE9F04F22
:103BB00087B014216846FCF737FC454800240168AB
:103BC00041F002010160016801F002010591016804
:103BD00041F040010160016801F040010591016878
:103BE00041F001010160016801F0010105910168E6
:103BF00041F008010160016801F0080105910168C8
:103C000041F080010160016801F0800105910168C7
:103C100041F020010160016801F020010591016877
:103C200041F0100101600068DFF8A88000F010008A
:103C30004FF400550590002229464046FEF7D4FB7C
:103C4000DFF8949000223C214846FEF7CDFBDFF8D8
:103C50008CA044F24006002231465046FEF7C4FBD9
:103C6000DFF87CB0AF10002239465846FEF7BCFBA7
:103C7000681100904FF48810CDE901046946194895
:103C8000FEF78CFA00950125CDE9015469464046BE
:103C90000394FEF783FA3C200090CDE90154694675
:103CA00048460394FEF77AFA0096CDE90154694636
:103CB00050460394FEF772FA0097CDE90154694625
:103CC00058460394FEF76AFA07B0BDE8F08F00008B
:103CD0003038024000180240001C0240001402402C
:103CE0000010024000040240104810B50E49016067
:103CF0004FF48271416000218160C1604FF4007215
:103D00000161C0E905123022C0E9072141628162E8
:103D10000A21C162FEF787FF002803D0BDE81040EA
:103D2000FDF72AB810BD0000005001402405002016
:103D300010B588B01C216846FCF776FB1148104985
:103D40000024C0E900144CF25031C0E90241046182
:103D50008461FFF7E3FA08B1FDF70EF86020CDE9C2
:103D6000000402940022694606480494FFF76AFAA8
:103D700008B1FDF701F80348FFF70AFA08B010BDD3
:103D8000001800400C06002010B58EB000240794E7
:103D9000089409940A940B941C2168460C94FCF72F
:103DA00043FB23484FF0804101605321C0E90114D7
:103DB00044F61F61C0E903148461FFF726F908B1D6
:103DC000FCF7DAFF4FF48050079007A91848FFF777
:103DD00069F908B1FCF7D0FF1548FFF79FFA08B161
:103DE000FCF7CAFF0B940BA911480C94FFF7C0F81D
:103DF00008B1FCF7C1FF602000904FF47A70CDE964
:103E00000104002269460A480494FFF71BFA08B12E
:103E1000FCF7B2FF042269460548FFF713FA08B120
:103E2000FCF7AAFF0248FFF7B3F90EB010BD00007F
:103E30007C05002010B58EB00024079408940994E6
:103E40000A940B941C2168460C94FCF7EDFA1E486A
:103E50001C49C0E9001441F28731C0E90241046104
:103E60008461FFF7D2F808B1FCF786FF4FF4805069
:103E7000079007A91448FFF715F908B1FCF77CFF74
:103E80001148FFF74BFA08B1FCF776FF0B940BA92A
:103E90000D480C94FFF76CF808B1FCF76DFF60203B
:103EA000CDE9000402940422694607480494FFF710
:103EB000C9F908B1FCF760FF0348FFF769F90EB0D4
:103EC00010BD000000040040C40500200C4810B5DF
:103ED0000A4901604FF4E1314160002181600C2208
:103EE000C160C0E904128161C161FFF7C7FA00280F
:103EF00003D0BDE81040FCF73FBF10BD0078004084
:103F0000540600200C4810B50A4901600B49416075
:103F1000002181600C22C160C0E904128161C1618D
:103F2000FFF7ACFA002803D0BDE81040FCF724BF2F
:103F300010BD00000010014098060020A08601007E
:103F40000C4810B50A4901604FF4E131416000218D
:103F500081600C22C160C0E904128161C161FFF778
:103F60008DFA002803D0BDE81040FCF705BF10BD56
:103F700000140140DC060020FEE77047A0B1D0ED40
:103F8000101AC0ED111A90ED0F1A80ED101AC0ED45
:103F9000060A80ED070A30EEC00A80ED0F0A0178AC
:103FA00029B101293BD078E09FED3D0A7047D0ED63
:103FB000010A60EE801AC0ED091AD0ED0A0A90EDF0
:103FC000022A42EE000A30EE410AC0ED0A0A90EDE4
:103FD0000D2A80ED0E2A90ED0C2A80ED0D2A80ED41
:103FE0000C0A90ED031A21EE001A80ED0B1A90EDE9
:103FF000050AF4EEC00AF1EE10FA09DCB1EE400A4F
:10400000F4EEC00AF1EE10FA02D390ED0A0A01E0D4
:1040100080ED0A0A31EE800A30EE010A2BE070EEE4
:10402000410A90ED012A20EE822A80ED092AD0ED86
:10403000020A60EE800AC0ED0A0AD0ED0D2A72EE87
:10404000200AC0ED0E2AD0ED0C2AC0ED0D2AF0EEAC
:10405000002A01EE620A30EE210A80ED0C0A90ED92
:10406000031A21EE000A80ED0B0A30EE800AD0ED33
:10407000080A30EE200A80ED080AD0ED040AB4EEFA
:10408000E00AF1EE10FA06DCF1EE600AB4EEE00AA6
:10409000F1EE10FA01D2C0ED080A90ED080A70475F
:1040A00000000000002819D09FED0D0A80ED110AD4
:1040B00080ED100A80ED0F0A80ED0E0A80ED0D0AEA
:1040C00080ED0C0A80ED0B0A80ED0A0A80ED090AEA
:1040D00080ED080A80ED060A80ED070A70470000AF
:1040E00000000000002828D0002A26D0017092EDA0
:1040F000001A80ED011A92ED011A80ED021A92ED7C
:10410000021A80ED031A80ED040A9FED0C0AC0ED3F
:10411000050A80ED0E0A80ED0D0A80ED0C0A80ED97
:10412000080A80ED0B0A80ED0A0A80ED090A80ED8D
:10413000110A80ED100A80ED0F0A704700000000A0
:1041400030B5144B1C68656945F0400565611B6816
:10415000DC6844F01004DC600F4B1C68256825F017
:10416000010525601C682568ED07F7D11D680B4C1B
:10417000AC601C68E06018680161186842601868EB
:10418000016841F4802101601868016841F0010173
:10419000016030BD98060020200700200410014077
:1041A0002DE9F041834C002583496570607800EB70
:1041B000800202EBC0020A441279120602D5A580E1
:1041C000E580C9E0401CC0B260700528EED3794894
:1041D000A3784FF4FA67C2883BB1022B0ED0032BB1
:1041E000204615D0042B2FD039E0BA4237D904F03D
:1041F000C3F8E0600120A070E58030E02046BA42BC
:104200002DD98570E580487C40F08000487418E026
:10421000BA4224D98570E580887F40F08000887795
:1042200001F034FEBDEEC00A0A2110EE100A41FA78
:1042300080F0604940B221312D28C87001DD2D2069
:10424000C87001F09FF90AE0BA4208D98570E5808C
:10425000FCF7E8FCFCF7E6FCFCF7E4FCF1E760693E
:10426000564AB0F900605342964214DAB0F902108F
:10427000914210DAB0F9047021469F420BDDB0F98B
:104280000670974207DA877A022F04D1C77A022F85
:1042900001D18F7897B19E4236DDB0F90210994274
:1042A0001ADDB0F9041091424CDAB0F9062021462B
:1042B0009A4247DD827A022A04D043E0C888401C33
:1042C000E08040E0C07A02283CD18878C8B3C88832
:1042D000401CC880022032E0914233DAB0F9043049
:1042E000214693422EDAB0F9063093422ADA827AD6
:1042F000022A27D1C07A022824D1887808B3C88836
:10430000401CC88003201AE096421BDAB0F9021064
:10431000994217DDB0F90410994213DDB0F9061087
:1043200099420FDD817A02290CD1C07A21460228F8
:1043300008D1887828B1C888401CC8800420A070A3
:1043400001E0FFE7E58004F017F8A061E16844F6BA
:104350002063421A9A4202D9A570BDE8F08142F268
:1043600010739A4205D921B1A27812B14FF47A7133
:1043700006E0884207D031B1A07848B14FF4FA7115
:10438000002001F007F9A07810B1A188491CA18094
:10439000A088B0F5C87F03D9A17809B1A580DCE772
:1043A000C828DAD9A0780028D7D0BDE8F04101F0BC
:1043B000E9B80000C0010020284A0020A8FDFFFF46
:1043C0000C4A10B51168CB6823F40053CB600A493E
:1043D0000B681C6824F001041C600B6858600868B6
:1043E000016841F0010101601068C16841F40051A9
:1043F000C16010BD98060020200700200348006817
:10440000C16821F40051C160704700009806002087
:1044100010B582B004461548DFF854C00068B0FB00
:10442000FCF04FF47A7C00FB0CF001906068B0F572
:10443000827F0ED10B46009200228021204600F0A0
:1044400019F880B1606D40F02000606502B0032073
:1044500010BD019838B10198401E01902068806815
:1044600010F0800FF5D102B0002010BDFC0000203C
:1044700000366E012DE9F84304460F4690469946F2
:10448000089DFDF7B9FF401BA9EB0005FDF7B4FF40
:1044900006462D480068C0F3CB3068430090206882
:1044A000806837EA00000ED00020404546D0B9F1C0
:1044B000FF3F3BD0FDF7A0FF801BA84205D225B1EE
:1044C000009870B32FE00120EFE72068416821F0E9
:1044D000E00141606068B0F5827F0BD1A068B0F563
:1044E000004F02D0B0F5806F04D12068016821F040
:1044F00040010160A06AB0F5005F09D12068016841
:1045000021F4005101602068016841F4005101600C
:10451000012084F85100002084F850000320BDE8F9
:10452000F883FFE700250098401E0090206880680F
:1045300037EA000005D000204045B8D10020BDE892
:10454000F8830120F8E70000FC000020012002F0C1
:10455000F3FCFBE710B5FDF755FF03F0FFFE012864
:1045600003D0BDE8104003F037BE10BD30B593B0A6
:1045700030216846FBF758FF14210CA8FBF754FFC5
:104580001C480025016841F080510160006800F07E
:10459000805011901848016841F440410160006862
:1045A000022400F44040119001200090000401908A
:1045B0008001CDE9064006200890A820CDE9090435
:1045C00004200B906846FEF7EDF800B1FEE70CA959
:1045D0000F2081E831004FF4A0500F904FF480502D
:1045E000109005210CA8FDF7C1FF002800D0FEE7C0
:1045F00013B030BD40380240007000400F480168E1
:1046000041F4700101600E48016841F00101016050
:104610000C4A00211160026822F4102222F08072FC
:104620000260031D084A1A60026822F480220260B8
:1046300006480160064958060860704788ED00E0AA
:104640000038024008380240103000240C38024084
:1046500008ED00E0F0B402682C4B2D4C2D4D2E4E91
:10466000DFF8B8C098420AD0B0F1804F07D0A0421E
:1046700005D0A84203D0B04201D0604503D122F05A
:1046800070024F683A43984228D0B0F1804F25D04D
:10469000A04223D0A84221D0B0421FD060451DD0F7
:1046A000A0F18044B4F5A03418D0A0F18044B4F552
:1046B000A23413D0A0F18044B4F5A4340ED0A0F1FC
:1046C0008044B4F5C05409D0A0F18044B4F5E0545E
:1046D00004D0A0F18044B4F5005403D122F4407218
:1046E000CC6822434C6922F08002224302608A682F
:1046F000C2620A688262984201D0604501D10969AC
:10470000016301214161F0BC7047000000000140DD
:104710000004004000080040000C0040000401407C
:1047200001F01F0101238B40D0F820C02CEA0303C5
:104730000362036A02FA01F1194301627047D0F87B
:1047400008C02CF47F4C42EA0322114341EA0C01D9
:1047500081607047826822F07002114341F00701C6
:104760008160704770B4026A22F001020262036A3B
:104770004268D0F818C02CF0700C2CF0030C0C68B8
:1047800044EA0C0C23F002038C6823430F4C104DB9
:10479000A04201D0A84205D123F00803CE683343DC
:1047A00023F00403A04201D0A84207D122F4807272
:1047B00022F400724C6922438C6922434260C0F8A3
:1047C00018C049684163036270BC70470000014033
:1047D0000004014070B4026A22F010020262036A0F
:1047E0004268D0F818C02CF4E04C2CF4407C0C68E3
:1047F0004CEA042C23F020038C6843EA0413114C88
:10480000114DA04201D0A84206D123F08003CE680A
:1048100043EA061323F04003A04201D0A84209D185
:1048200022F4806222F400624C6942EA84028C69BC
:1048300042EA84024260C0F818C04968816303629A
:1048400070BC7047000001400004014070B4026A6F
:1048500022F480720262036A4268D0F81CC02CF015
:10486000700C2CF0030C0C6844EA0C0C23F400735D
:104870008C6843EA0423114C114DA04201D0A84298
:1048800006D123F40063CE6843EA062323F4806351
:10489000A04201D0A84209D122F4805222F4005251
:1048A0004C6942EA04128C6942EA04124260C0F880
:1048B0001CC04968C163036270BC704700000140BE
:1048C0000004014010B4026A22F480520262D0F85F
:1048D00020C04268C36923F4E04323F440730C68AA
:1048E00043EA04232CF4005C8C684CEA043CA0F1FD
:1048F0008044B4F5803404D0A0F18044B4F582340F
:1049000004D122F480424C6942EA84124260C361BD
:1049100049680164C0F820C010BC7047036AD0F831
:1049200020C02CF0010CC0F820C0D0F818C02CF02A
:10493000F00C4CEA021223F00A031943826101626F
:104940007047036A23F010030362D0F818C0036AAB
:104950002CF4704C4CEA023223F0A00343EA01111C
:1049600082610162704700002DE9F0410446206831
:104970000169E26821F44051114301612169A06895
:10498000E26908436169114301432068C26822F467
:10499000037222F414421143C16020684169A26984
:1049A00021F44071114341612068A0F18041B1F5CB
:1049B00088312ED0A0F18041B1F58A3129D0FDF7A0
:1049C00099FE8446E16900201927254D3226B1F56C
:1049D000004F22D06068830F8200ACFB0701FBF719
:1049E000D9FC0146A5FB002040097A42424301EB75
:1049F000820106EB0111A5FB0121490901F0F0023A
:104A000002EB001001F00F01084421688860BDE846
:104A1000F081FDF77FFE8446D4E761684A1840EBD9
:104A20000003ACFB0701FBF7B5FC0346A5FB001038
:104A3000410918460A016FF01803594300EB810041
:104A400006EBC000A5FB0010400900F0F80102EBE6
:104A5000410100F00700084421688860BDE8F0814A
:104A60001F85EB512DE9F0410446069D8846164608
:104A70001F462068006838EA00002AD00020B042B3
:104A800031D1B5F1FF3F26D025B1FDF7B5FCC01BF4
:104A9000A84220D920680C3050E8001F21F4D071C2
:104AA00040E80012002AF5D12068143050E8001FB9
:104AB00021F0010140E80012002AF5D1202084F8FD
:104AC0003D0084F83E00002084F83C000320BDE84F
:104AD000F0810120D3E72068006838EA000005D0A3
:104AE0000020B042CDD00020BDE8F0810120F8E7E1
:104AF00038B52A4800680168890603D5016840680E
:104B0000009038BD26490968C906FAD50168406891
:104B1000244A0090106801684FF024030C032249D6
:104B2000046824F0010404601AD410684468C4F1D5
:104B30002404A4B20C8043601068016841F4002191
:104B400001601068016841F001010160122CD8D1A8
:104B5000164901F1160002F059FD1448163019E00B
:104B600014686068C0F1240080B208806360104956
:104B70000B6823F400230B6011680A6842F00102FD
:104B80000A601228BDD1094901F13A00044602F039
:104B90003DFD2046BDE8384002F092BD9806002059
:104BA0000010014020070020BC010020F448002034
:104BB00088640240FEE74100080218BF04200A0E84
:104BC00018BF40F001004FF07F4232EA010108BFF8
:104BD00040F00200012808BF0520704710B54FF0D3
:104BE0000E402DED028BB0EE408A18EE104A00EB1D
:104BF0004400B0F1506F4AD84FF0FC40B0EB440F86
:104C000022D2B0EEC80AF7EE000A30EEC00AF6EE85
:104C1000000A60EE208A18EE900A03F02DF801EEEB
:104C2000100A14F0004F1DBFDFED2D0A9FED2D0A75
:104C3000B1EE411ADFED2C0A08BF9FED2C0AF8EE09
:104C4000001A21EE218A05E0DFED290A68EE088AC4
:104C5000B0EE600A9FED271ADFED271A30EE080A42
:104C600048EE811A9FED251A08EEA11ADFED241AED
:104C700048EE811A9FED231A08EEA11A68EE281A51
:104C8000BDEC028B01EE810A30EE200A10BD4FF020
:104C9000E440B0EB440F0CD918EE100AFFF78BFF7D
:104CA000042808BF00F0B2F9B0EE480ABDEC028B50
:104CB00010BD4FF07F40B0EB440F07D2B0EE480A72
:104CC000BDEC028BBDE8104000F091B9012000F06E
:104CD000B5F9BDEC028BBDE8104000F08FB90000C3
:104CE0000000C9BF22AAFDB90000C93F22AAFD39B0
:104CF0000000000024FE1C3DC78AD83C1E67383DDA
:104D00001B93993DAFAA2A3E70B54FF068422DED36
:104D1000048BF0EE408A18EE900AB0EE608A18EE2E
:104D2000101A02EB4003B3F1654F3CBF02EB4102A6
:104D3000B2F1654F7DD200BFC0F3C753C1F3C75274
:104D40009A1A1B2A09DD10F0004F14BF9FED830A49
:104D50009FED830ABDEC048B70BD12F11A0F36DA99
:104D600011F0004F09D010F0004F0CBF9FED7D0AED
:104D70009FED7D0ABDEC048B70BD88EE889A19EE1C
:104D8000100AFFF718FF042808BF00F03FF918EEDB
:104D9000900AFFF710FF054618EE100AFFF70BFF09
:104DA000044619EE100AFFF706FF042D18BF052D63
:104DB00008D1042C18BF052C04D1002804BF022000
:104DC00000F03CF9B0EE490ABDEC048B70BD420026
:104DD000B2EB410F3AD910F0004F19BFDFED630A73
:104DE0009FED630ADFED630A9FED630AB0EE481A98
:104DF0000A46B1EE688A80F00041F0EE418A104622
:104E00000A1A5200B2F1807F34D2484010F0004FAD
:104E1000DFED5A1A9FED5A2A1DBFBEEE001A70EE42
:104E2000E10A30EE420AB6EE001A08BF70EEA10A9F
:104E300000E040E008BF30EE020AB0EE682A01EE62
:104E4000482A08EE818AC2EE081A15E011F0004FD8
:104E500004BF9FED4C0AF0EE400AD1D010F0004F95
:104E600019BFDFED490A9FED490ADFED490A9FEDC1
:104E7000490AC5E7C8EE881A21EEA11A9FED462A15
:104E8000DFED462A41EE022A9FED452A01EE222A55
:104E9000DFED442A41EE022A9FED432ABDEC048B4C
:104EA00001EE222A21EE811A01EE020A30EE210AD9
:104EB00030EE200A70BD4FF07F42B2EB400F28BFAA
:104EC000B2EB410F09D2F0EE480AB0EE680ABDEC31
:104ED000048BBDE8704000F08DB840EA01035B0030
:104EE00008BF41F0FF410BD0B2EB400F08BFB2EB5F
:104EF000410F08D120F0804008EE900A21F0804157
:104F000008EE101A18E7B2EB400F12BF5FEA410338
:104F100040F0FF4001F000413FF40EAFB2EB410F13
:104F200012BF5FEA400200F0004041F0FF413FF451
:104F300003AF4A0092EA40033FF5FEAE002AACBF41
:104F40009FED1A0A9FED1A0A68EE808A28EE008A01
:104F500018EE900A18EE101AEEE60000DB0FC9BF3B
:104F6000DB0FC93FDB0F4940DB0F49C00000C9BF61
:104F700022AAFDB90000C93F22AAFD390060ED3E1A
:104F8000C30ACE3700000000000049C022AA7DBA43
:104F90000000494022AA7D3A2DAD65BD8FB8D53DB0
:104FA0000FB511BE61C84C3EA8AAAABE0000804F32
:104FB0000000802F10B52DED028BB1EEC08A18EEE7
:104FC000100A20F00040C0F1FF40C00F0AD010EEE0
:104FD000100A20F00040C0F1FF40C00F04BF0120C4
:104FE00000F02CF8B0EE480ABDEC028B10BD30EE9C
:104FF000000A704730EE200A70470000DFED020A19
:1050000080EEA00A70470000000000009FED020A39
:1050100020EE000A704700000000001002E008C8FF
:10502000121F08C1002AFAD170477047002001E022
:1050300001C1121F002AFBD170470000014908601E
:105040007047000034020020D0ED000AF4EEC00AE0
:10505000F1EE10FA06DCB1EE400AF4EEC00AF1EE11
:1050600010FA01D280ED000A7047000070B52DEDF6
:10507000028B8AB005460C4616460DB104B11EB926
:105080000AB0BDEC028B70BD94ED000AB5EEC00A0B
:10509000F1EE10FA0DD194ED010AB5EEC00AF1EE71
:1050A00010FA06D194ED020AB5EEC00AF1EE10FA3C
:1050B0007DD09FED600AB0EE408A002007900890F6
:1050C00009900490059006905B4A07CA01AB07C39C
:1050D00095ED010AD5ED030A20EE200AD5ED000A70
:1050E00095ED021A00EEC10AF0EE000A20EE200A49
:1050F0008DED070A95ED000AD5ED010A20EE200A94
:10510000D5ED020A95ED031A00EE810AF0EE000AD1
:1051100020EE200A8DED080A95ED000A20EE000A27
:10512000D5ED030A95ED031A00EE810AF7EE000AA9
:10513000B0EE001A51EE000ACDED090A01AB22468D
:105140003146284600F07AF8D4ED000A60EEA00A55
:1051500094ED011AD4ED011A41EE210A94ED021AE0
:10516000D4ED021A41EE210AB0EE600AFBF7D8FB3B
:10517000B0EE408A94ED000A20EE080A84ED000AA1
:1051800094ED010A20EE080A84ED010A94ED020A6A
:1051900020EE080A84ED020A94ED010ADDED090A09
:1051A00020EE200AD4ED020A9DED081A00E03EE050
:1051B00000EEC10A8DED040A94ED020ADDED070A46
:1051C00020EE200AD4ED000A9DED091A00EEC10A76
:1051D0008DED050A94ED000ADDED080A20EE200AA7
:1051E000D4ED010A9DED071A00EEC10A8DED060A05
:1051F00096ED000ADDED010A9DED041A00EE810A2C
:1052000086ED000A96ED010ADDED020A9DED051A14
:1052100000EE810A86ED010A96ED020ADDED030A31
:105220009DED061A00EE810A86ED020A00BF00BF5E
:1052300026E7000000000000248600082DE9F04168
:105240002DED048B07460D4614461E469FED580A69
:10525000B0EE409A9FED560AB0EE408A9FED540A98
:10526000F0EE408AD4ED000A60EEA00A94ED011A37
:10527000D4ED011A41EE210A94ED021AD4ED021A7E
:1052800041EE210AB0EE600AFBF74AFBF7EE000A96
:1052900080EE801AB0EE419AD5ED000AB0EE600AB9
:1052A000FBF7D0F9F0EE409AD5ED010AB0EE600AB6
:1052B000FBF7C8F979EE809AD5ED020AB0EE600AE4
:1052C000FBF7C0F939EE800AF0EE408A3948D0ED9C
:1052D000000A79EE600AB0EE600AFBF7B3F9B0EEAF
:1052E000408A9FED350AB4EEC08AF1EE10FA06DC72
:1052F0009FED320AF4EEC08AF1EE10FA53DD9FED15
:105300002C2AB0EE420A9FED2A2AF0EE421AB7EE9E
:10531000002AF0EE420A9FED262AB0EE421AB5EEC0
:10532000C08AF1EE10FA05DD9FED232AC2EE082AAD
:10533000B0EE620A9FED222AB4EEC20AF1EE10FA34
:1053400003D29FED1B2AB0EE420AF5EEC08AF1EEC1
:1053500010FA05DD9FED192AC2EE282AF0EE621A36
:10536000B7EE002AB4EEC20AF1EE10FA03D220EE34
:10537000802AF0EE420AB7EE002AF4EEC21AF1EEED
:1053800010FA03D220EEA12AF0EE420A9FED0D2A78
:1053900020EE822AB0EE421A86ED001A86ED011A3E
:1053A00086ED021A00BFBDEC048BBDE8F081000061
:1053B0000000000030020020CDCCCC3D8FC2F53D76
:1053C0009A99993ECDCC4C3E10B50D4A0446012029
:1053D000C2E900100020906011462046FBF70AFE4B
:1053E00008B1FBF7C9FC2046FBF770FF0A212046F5
:1053F000FBF708FF2046FBF7C3FE80B210BD00009C
:105400007046002010B52DED048B86B00446B0EE3A
:10541000408AF0EE608AB0EE419A0020039004903A
:105420000590009001900290B0EE000AC8EE000ACC
:10543000F0EE609AB0EE690AFBF702F98DED030A0F
:10544000B0EE000AC8EE800AF0EE609AB0EE690A8B
:10545000FBF7F6F88DED040AB0EE000AC9EE000A7B
:10546000F0EE609AB0EE690AFBF7EAF88DED050AF6
:10547000B0EE000AC8EE000AF0EE609AB0EE690ADB
:10548000FBF758FA8DED000AB0EE000AC8EE800A6C
:10549000F0EE609AB0EE690AFBF74CFA8DED010A66
:1054A000B0EE000AC9EE000AF0EE609AB0EE690AAA
:1054B000FBF740FA8DED020A9DED050ADDED040AC9
:1054C00020EE200ADDED030A20EE200ADDED020ABF
:1054D0009DED011A60EE810A9DED001A00EE810A31
:1054E00084ED000A9DED020ADDED040A20EE200A9B
:1054F000DDED030A20EE200ADDED050A9DED011A1F
:1055000060EE810A9DED001A00EEC10A84ED010AE9
:105510009DED050ADDED010A20EE200ADDED030A0E
:1055200020EE200ADDED020A9DED041A60EE810AEC
:105530009DED001A00EE810A84ED020A9DED050A38
:10554000DDED040A20EE200ADDED000A20EE200A3F
:10555000DDED020A9DED011A60EE810A9DED031A50
:1055600000EEC10A84ED030A06B0BDEC048B10BD49
:105570004FF47A7001F0E0FC01F046FB642001F08A
:10558000DBFCFBE702490020096848637047000024
:105590000C060020024A1368986210684163704745
:1055A0000C0600202DE9F05F9846DDE90AA9DDF838
:1055B00030B016460F4604007DD0002F7BD0002E61
:1055C00079D0B8F1000F76D05FEA0A0073D05FEAB5
:1055D000090070D05FEA0B006DD0218A608A41F625
:1055E000FF75081A00B2002801DA284400B200EB67
:1055F000D070A1EB600000B2B0F5005F03DBA0F556
:10560000F850FF3802E0002801DA284400B281B2E5
:105610003980208A01F0C0FB88ED000A3988608A51
:1056200001F0BAFB8AED000A94ED020ADFED2F0AC1
:10563000A18AE28A80EE201ABDEEC10A10EE100A9D
:1056400094ED030A084480EE201A01B2BDEEC10AAF
:1056500010EE100A10444FF4005200B2914203DBE6
:10566000A1F5F851FF3902E0002901DA294409B215
:10567000904203DBA0F5F850FF3802E0002801DA81
:10568000284400B2081A00B2B0F5805F03DDA0F52F
:10569000F850FF3803E010F5805F01DA284400B2CB
:1056A00000EBD070A1EB600000B2904204DBA0F5EB
:1056B000F850FF3803E016E0002801DA284400B271
:1056C00000F5967081B23180A08A01F065FBB1EEE1
:1056D000400A89ED000A3188E08A01F05DFBB1EEF5
:1056E000400A8BED000ABDE8F09F0000DB0F493A4D
:1056F0002DE9F8430025DFF87C90DFF87C802E460A
:1057000005EB850000EBC50707EB08042079D4F80A
:10571000051000F07F0206EB090000F01BFA20796B
:10572000012200F07F0006EB800086B2694606EB9E
:10573000090000F00FFA9DF8001008F807109DF816
:10574000010060709DF80200A0709DF80300361DF6
:10575000E070B6B2552806D0D4F8090018B1207907
:1057600040F0800020716D1CEDB2052DC8D3BDE85E
:10577000F883000000000A08284A00202DE9F041C3
:10578000DFF85C8000242646A8F1780704EB84004B
:1057900000EBC40101EB08052879D5F80510400697
:1057A000C20DB819FAF727FE2879641C00F07F00B3
:1057B00006EB800080B23918001D2A68E4B20A6046
:1057C00086B2052CE2D3074C0121204600F0A8F94F
:1057D0002046BDE8F04102491E22783900F0C0B9E8
:1057E000284A002000000A081CB511B1012908D080
:1057F0001BE0011D91EC040A4188008801F072FF52
:1058000013E000F11002111FCDE900120B1F021D61
:10581000811C00F005F918B1FFF7B4FE01201CBD92
:105820004FF47A710020FFF7B5FE00201CBD000088
:105830000A0010B5014600F10C0002D0012A03D085
:105840001CE0FDF7B9FF19E00D4AFDF785FF0C4894
:1058500044F6206208380189914208D9002101816B
:10586000FFF790FE2420FEF7ABFD012010BDFEF7F0
:10587000C5FD4FF4FA710020FFF78CFE002010BD2B
:10588000C801002010B50446B1B10020207000F01E
:10589000FDFABDEEC00A0A2110EE100A41FA80F0AE
:1058A00040B2E0702D2801DD2D20E07043F2390078
:1058B000A4F8010001486060012010BD0000B04163
:1058C0002DE9F0411A4A1B4D002002F1240302F198
:1058D000100600EB800101EBC0012944145C0F7934
:1058E00064F306070F7156F82040C1F8054053F8DD
:1058F0002040401CC0B2C1F809400528E9D3FFF799
:10590000F7FE002404EB840000EBC4002844C178B7
:10591000552906D1D0F809201AB156F824000021E3
:105920009047641CE4B2052CECD3BDE8F081000084
:10593000DC010020284A002000F0A4FA1F4C0026B9
:105940001F4D6061FEF72CFC2670207800EB800173
:1059500001EBC00129440A79120621D5D1F80920AA
:10596000F2B116492C3151F8200001219047B8B10D
:105970002078144F00EB400300EB800202EBC000E4
:10598000F95C2954D91928444A7842708978817081
:105990005521C170017921F080010171FFF7EEFE00
:1059A0002078401CC0B220700528CED3012001F021
:1059B000C3FA002002F026FA2061C3E7C0010020EC
:1059C000284A00200886000800B58BB0002001217D
:1059D000CDE9060108910090019002900390059096
:1059E000049069460C48FBF799FD0B48FCF761F9F8
:1059F00002210948FBF7FEFC0E200990059069463C
:105A00000648FBF78BFD0548FCF753F902210348D4
:105A1000FBF7F0FC0BB000BDD4040020FC04002018
:105A20002DE9FE431746384A8946DDE90A5492F8C3
:105A3000E4111E4619B19046052924D020E001202A
:105A400082F8E401D2ED6B0AC2ED750AD2F8EC10CF
:105A50000888A2F8E00192ED330A82ED730AD0685B
:105A60000388A2F8DC31C2ED760A0988A2F8E211B7
:105A700082ED740A0188A2F8DE110088A2F8BA004B
:105A80000020BDE8FE830096CDE9015401463B4667
:105A90004A461E48FFF786FDD7ED000A9FED1C0A17
:105AA0001E4870EEC00AC7ED000AD6ED000A70EE7F
:105AB000800AC6ED000AD5ED000A70EEC00AC5EDF9
:105AC000000AD4ED000A30EE800A84ED000A9FED52
:105AD000110A88ED2F0A9FED100A88ED300AB9F8F7
