:020000040800F2
:10000000E84D0020850200088337000813310008FE
:10001000813700085D0A00089543000800000000D1
:10002000000000000000000000000000C501000802
:10003000CB0B00080000000021020008353D00083D
:100040009F0200089F0200089F0200089F0200080C
:100050009F0200089F0200089F0200089F020008FC
:100060009F0200089F0200089F0200089F020008EC
:100070009F0200089F0200089F0200089F020008DC
:100080009F0200089F0200089F0200089F020008CC
:10009000610A00089F0200089F0200089F020008F2
:1000A0009F0200089F0200089F0200089F020008AC
:1000B0009F0200089F0200089F0200089F0200089C
:1000C0009F0200089F0200089F0200089F0200088C
:1000D0009F020008D14200089F0200089F0200080A
:1000E0009F0200089F0200089F0200089F0200086C
:1000F0009F0200089F0200089F0200089F0200085C
:100100009F0200089F0200089F0200089F0200084B
:100110009F0200089F0200089F0200089F0200083B
:100120009F0200089F020008010B00089F020008C0
:100130009F0200089F0200089F0200089F0200081B
:100140006D0A00089F0200089F0200089F02000835
:100150009F0200080D0B00089F0200089F02000884
:100160009F0200089F0200089F0200089F020008EB
:100170009F0200089F0200089F0200080000000084
:100180009F0200089F0200089F0200089F020008CB
:100190009F0200089F0200089F0200089F020008BB
:1001A00000000000000000009F020008DFF810D0EF
:1001B00000F06CF900480047C5620008AFF300800A
:1001C000E84D00202C4B19680868B0E8F04F80F328
:1001D0000988BFF36F8F4FF0000080F311887047DC
:1001E0000000000008480068006880F308884FF0AD
:1001F000000080F3148862B661B6BFF34F8FBFF37F
:100200006F8F00DF00BF00BF08ED00E0DFF80C00DB
:10021000016841F470010160704700BF88ED00E0A3
:10022000EFF30980BFF36F8F134B1A681EF0100FA6
:1002300008BF20ED108A20E9F04F106009B44FF09C
:10024000500080F31188BFF34F8FBFF36F8F07F01B
:1002500001FA4FF0000080F3118809BC19680868A2
:10026000B0E8F04F1EF0100F08BFB0EC108A80F31A
:100270000988BFF36F8F7047F8000020EFF3058007
:10028000704700000648804706480047FEE7FEE743
:10029000FEE7FEE7FEE7FEE7FEE7FEE7FEE7FEE736
:1002A000DD3D0008AD0100089FED1A1AF5EE000AC9
:1002B00040EE010ABDEEE00AF5EEC00A10EE100AAB
:1002C000F1EE10FA38BF401E00EE100A1349F7EEA7
:1002D000001AB8EEC00A30EEC00ADFED0F0A20EEB9
:1002E000200AFCEEC00A10EE900AC0F3080000EEEF
:1002F000900A01EB8000F8EE600A90ED011A70EEB2
:10030000600A90ED000A71EEE01A21EE800A00EE1C
:10031000810A704783F9223E00000044E87B000810
:10032000DFED190AB5EEC00A60EE200ABDEEE01A54
:1003300011EE100AF1EE10FA38BF401E00EE100A5E
:100340001349F7EE001AB8EEC00A30EEC00ADFED2E
:100350000F0A60EE200ABCEEE00A10EE100AC0F3AD
:10036000080000EE100A01EB8000B8EE400A90EDA4
:10037000011A70EEC00A90ED000A71EEE01A21EE4B
:10038000800A00EE810A704783F9223E0000004493
:10039000E87B00082DE9F05F0546002092469B4669
:1003A00088460646814640241BE02846414647468B
:1003B000224600F05AF853465A46C01A914110D3CB
:1003C00011461846224600F041F82D1A67EB010845
:1003D0004F4622460120002100F038F817EB0009B3
:1003E0004E41201EA4F10104DFDC484631462A4676
:1003F0004346BDE8F09F40EA01039B0703D009E0B4
:1004000008C9121F08C0042AFAD203E011F8013B00
:1004100000F8013B521EF9D27047D2B201E000F859
:10042000012B491EFBD270470022F6E710B5134698
:100430000A4604461946FFF7F0FF204610BD421C4D
:1004400010F8011B0029FBD1801A7047202A04DB19
:10045000203A00FA02F1002070479140C2F12003D7
:1004600020FA03F3194390407047202A04DB203A16
:1004700021FA02F00021704721FA02F3D040C2F1C4
:10048000200291400843194670470000064C074D72
:1004900006E0E06840F0010394E807009847103454
:1004A000AC42F6D3FFF786FE1484000834840008BB
:1004B00070B58C1810F8015B15F0070301D110F826
:1004C000013B2A1106D110F8012B03E010F8016B53
:1004D00001F8016B5B1EF9D12B0705D40023521ED6
:1004E0000DD401F8013BFAE710F8013BCB1A921C3E
:1004F00003E013F8015B01F8015B521EF9D5A1423C
:10050000D8D3002070BD03F059BF03F0EDBFFFF753
:10051000CBBEF0EE400AF5EEC00AF1EE10FA02DDB5
:10052000B0EE600A7047B1EE600AFBE7002803D026
:100530009FED020A80ED000A7047000000000000F5
:10054000002803D0B3EE060A80ED000A70470000D1
:1005500070B52DED0C8B84B006460C4615469FED0C
:10056000990AF0EE408A9FED970AB0EE409A9FED0F
:10057000950AF0EE40BA9FED930AF0EE409A9FED97
:10058000910AB0EE40AA0EB104B11DB904B0BDECA1
:100590000C8B70BD8C48FFF7C9FF8C48FFF7D0FF6C
:1005A0008A48D0ED000A9FED8A1A60EE810AB0EE0B
:1005B000600A00F025F9F0EE408A28EEA80AF0EE75
:1005C000408A8248D0ED000AB0EE001A60EE810A3F
:1005D0009FED7F1A60EE810AB0EE600A00F010F91C
:1005E000B0EE409A29EE090AB0EE409ADFED790AA2
:1005F000B7EE000A00EEA80ADFED770A00EEC90A9E
:10060000DFED760A20EE200A754880ED000A6E487C
:1006100090ED000ADFED730A80EE201AB7EE000AB3
:1006200031EE000A20EE000A6D48D0ED000A80EE9F
:10063000801A6D4880ED001A94ED000AB5EEC00AEC
:10064000F1EE10FA0DD194ED010AB5EEC00AF1EE0B
:1006500010FA06D194ED020AB5EEC00AF1EE10FAD6
:1006600046D09FED580AB0EE408A002001900290DB
:100670000390D4ED000A60EEA00A94ED011AD4EDC7
:10068000011A41EE210A94ED021AD4ED021A41EE4C
:10069000210AB0EE600A00F0A9F8B0EE408A94EDAD
:1006A000000A20EE080A8DED010A94ED010A20EE01
:1006B000080A8DED020A94ED020A20EE080A8DED7B
:1006C000030ADDED010AF1EE600AB0EE600AFFF701
:1006D0001AFFF0EE409A9DED031AF0EE410A9DEDEF
:1006E000021AB0EE410AFFF710FFB0EE40AA07E091
:1006F0009FED340AF0EE409A9FED320AB0EE40AA28
:1007000095ED000AB5EEC00AF1EE10FA0DD195EDA7
:10071000010AB5EEC00AF1EE10FA06D195ED020A13
:10072000B5EEC00AF1EE10FA3CD0B0EE690A00F066
:1007300067F8B0EE408AB0EE690AFFF7E8FEB0EE67
:1007400040DAB0EE4A0A00F05BF8F0EE40AAB0EEF4
:100750004A0AFFF7DCFEB0EE40BA28EE2A0AD5EDD1
:10076000010A20EE200AD5ED000A0DEE200A68EEFF
:100770000B0A95ED021A00EE810AB0EE40CA95ED23
:10078000010A20EE0B0AD5ED020A0AEEE00AF0EEAD
:1007900040CAF0EE6C0AB0EE4C0AFFF7B6FEF0EE7F
:1007A00040BA03E09FED070AF0EE40BAB0EE4A1AF5
:1007B000F0EE690AB0EE6B0A304604F0F5F900BFBE
:1007C000E4E6000000000000180200201C020020E7
:1007D00035FA8E3CC1BFAD3B9DF8C5362F7C1C4120
:1007E00020020020506CC24A2402002010B503F001
:1007F000D1FFB7EE001AC1EE000AB0EE600A10BDDC
:10080000FFF78EBD2DE9F0412DED028B9AB0054624
:10081000B0EE408A0E461746984600201790189072
:1008200019901490159016904DB146B13FB1B8F1A2
:10083000000F04D0B5EEC08AF1EE10FA05D1002009
:100840001AB0BDEC028BBDE8F08196ED000A8DED8B
:10085000170A96ED010A8DED180A96ED020A8DED44
:10086000190A97ED000A8DED140A97ED010A8DED36
:10087000150A97ED020A8DED160A17AA14A9284643
:1008800003F0E4FF402104A8FFF7CEFD0020009014
:10089000019002900390002417A904A806F02CFDF3
:1008A00000BF30E004A800EB041090ED000AD5ED85
:1008B000000A20EE200A04A800EB0410D0ED010A83
:1008C00095ED011A00EE810A04A800EB0410D0EDAA
:1008D000020A95ED021A00EE810A04A800EB04104A
:1008E000D0ED030A95ED031A00EE810A20EE080A06
:1008F000F0EE000A80EE201A684600EB840080EDDE
:10090000001A601CC4B2042CCCDB002410E005EB00
:10091000840090ED000A684600EB8400D0ED000AE8
:1009200030EE200A05EB840080ED000A601CC4B2A2
:10093000042CECDB284606F0CFF8012080E700000D
:100940002DE9F04116460C46054600270E223F4988
:100950003B2005F075FDF80040EA5730B0F5806F98
:1009600001DBA0F5006000EE100A9FED391A374850
:10097000F8EEC01AB3EE050A00F10E03F0EE400ADD
:1009800041EE810AC6ED000A018849BA09B2198010
:10099000428800EE901A52BA5A808288F8EEE01A25
:1009A00052BA9A80C288DFED2B0A52BA9A81028924
:1009B00061EEA01A52BADA81428952BA1A8280894B
:1009C00040BA5882C4ED001AB3F9020001EE900A51
:1009D000F8EEE11A61EEA01AC4ED011AB3F90400B1
:1009E00001EE900AF8EEE11A61EEA00AC4ED020AE7
:1009F000B3F90E0000EE900AF8EEE01ADFED160AE9
:100A000061EEA01AC5ED001AB3F9100001EE900ACC
:100A1000F8EEE11A61EEA01AC5ED011AB3F9120061
:100A200001EE900AF8EEE11A61EEA00AC5ED020AA5
:100A3000B3F90C0000EE900AF8EEE00AC0EE811A5D
:100A400031EE800A86ED000ABDE8F081A40700209F
:100A50005CEFA6435A10163C58A08B3AFEE7000004
:100A6000014800F0D0BB000080040020014800F0E5
:100A7000CABB0000A80400200C4908B54FF4E06090
:100A80000860002008228860C1E9030208496B461B
:100A90000A46087048708870C8700871487188717B
:100AA000C8710249034800F0E1F908BDA8450020DB
:100AB00079010020A804002038B50E4C40F2FF1543
:100AC00025600025A560E560082525610A4C050A1A
:100AD00025706070080AA070E170100A20716271C0
:100AE000180AA071E3716B4622460249034800F0E0
:100AF000BDF938BD90450020710100208004002020
:100B0000014800F039BE000040060020014800F016
:100B100033BE0000A006002001680A4BCAB2103A9A
:100B2000A3FB02321209084B9B5CC365032A04D95C
:100B30006FF30901091D816502E06FF30901816509
:100B4000806D7047ABAAAAAA887B000801460020E6
:100B50008A6A8B69002B0FD0B3F5005F1DD08AB372
:100B6000012A30D0022A2ED0032A04D1C96A11F0FA
:100B7000807F00D0012070471AB1012A07D0022AD5
:100B8000F9D1C96A11F0807FF5D001207047C96A98
:100B9000B1F1C07FFAD1012070475AB1012A0BD0C0
:100BA000022A07D0032AF7D1C96AB1F1C07FF3D175
:100BB0000120704701207047C96A11F0807FFAD088
:100BC00001207047FFE7012070477047FEE70000F3
:100BD0000022002905D001291DD002291ED04FF482
:100BE00040720B2800D9001D0E490B6823F4407396
:100BF0000B600B681A430A600A6822F0F8020A6068
:100C00000A68022343EAC00010430860086840F401
:100C10008030086070474FF48072E2E74FF4007252
:100C2000DFE70000103C02401448016811F4007F27
:100C30000FD0016821F400710160016841F4006186
:100C40000160016821F400610160016841F40071F4
:100C50000160016811F4806F0FD0016821F4806198
:100C60000160016841F480510160016821F4805104
:100C70000160016841F4806101607047003C0240FE
:100C80000F4A136823F44073136003290DD0012920
:100C900011D0116841F40041116011684FF48033A4
:100CA00043EA0020084310607047116848F20403CB
:100CB00019431160F1E7116841F004011160ECE79C
:100CC000103C0240064A136823F440731360136813
:100CD0001360136843F00103136001707047000054
:100CE000103C02400B49D1F800C02CF4407CC1F804
:100CF00000C0D1F800C04CF4407CC1F800C0D1F86D
:100D000000C04CF0010CC1F800C00260BFF36F8F4F
:100D100043607047103C0240074A136823F4407355
:100D20001360136843F480731360136843F0010386
:100D30001360018070470000103C0240074A1368AE
:100D400023F440731360136843F400731360136853
:100D500043F001031360016070470000103C024043
:100D60001F49086810F0100F1E4805D0C26942F0F4
:100D70001002C26110220A600A6812F0200F05D02A
:100D8000C26942F00802C26120220A600A6812F0B9
:100D9000400F05D0C26942F00402C26140220A60DD
:100DA0000A6812F0800F05D0C26942F00202C261E7
:100DB00080220A600A6812F4807F06D0C26942F07D
:100DC0000102C2614FF480720A600A6812F0020FD9
:100DD00005D0C26942F02002C2610220086070475B
:100DE0000C3C02403808002070B50446144900202D
:100DF000C86101F02BF80646124D286810F4803FB8
:100E00000ED0B4F1FF3F07D024B101F01FF8801BD2
:100E1000A04201D9032070BD286810F4803FF0D1B2
:100E2000286810F0010F01D001202860286810F414
:100E3000F97F03D0FFF794FF012070BD002070BD43
:100E4000380800200C3C024090F82020012A07D0EE
:100E5000022A05D0416A41F4802141620120704795
:100E600000684269114341610020704770B490F8F6
:100E70002040D0F800C0DCF808C0012C08D0022CBB
:100E800006D0416A41F48021416270BC0120704764
:100E90000CF080640CF000652C4302D11CF0805FE4
:100EA0005FD0CCF3016CBCF1020F06D9416A41F46A
:100EB0000001416270BC01207047012404FA0CF467
:100EC0001C608B684FF4C0749BB1CD6804EB0C16AA
:100ED0002B434D6843EAC5030568AB514FF4C27319
:100EE000066803EB0C130D69F550097D012909D043
:100EF0000DE00D88CB6804EB0C1643EA45530568FA
:100F0000AB51EBE70168CD5845F48075CD501179B0
:100F1000D379557941EA036193791B0443EA0523A8
:100F200019434FF4C675036805EB0C155951117838
:100F3000D37841EA0361937852781B0443EA022292
:100F400011434FF4C473026803EB0C13D1500168D2
:100F500004EB0C100A5842F001020A5070BC002049
:100F60007047416A41F40011416270BC0120704732
:100F700090F82020012A07D0022A05D0416A41F4C6
:100F800080214162012070474248D0F8002242F09F
:100F90000102C0F80022D0F8002222F47C52C0F8EE
:100FA0000022D0F800224B6A42EA0322C0F8002255
:100FB0000A7D012302F01F0203FA02F2D0F81C326C
:100FC0009343C0F81C32CB69D3B9D0F80C329343A9
:100FD000C0F80C32B1F80CC04B686CF31F43D1F869
:100FE00014C000EBCC0CCCF84032B1F808C00B6850
:100FF0006CF31F43D1F814C000EBCC0CCCF8443296
:10100000CB69012B1AD1D0F80C321343C0F80C3243
:10101000B1F800C04B686CF31F43D1F814C000EB6B
:10102000CC0CCCF84032B1F808C0CB686CF31F434D
:10103000D1F814C000EBCC0CCCF844328B697BB1F6
:10104000D0F804321343C0F804320B6973B1D0F8FE
:1010500014321343C0F81432096A01290CD010E08D
:10106000D0F804329343C0F80432EEE7D0F81432DB
:101070009343C0F81432EFE7D0F81C121143C0F8C4
:101080001C12D0F8001221F00101C0F8001200205B
:101090007047000000640040704710B490F820C012
:1010A000BCF1010F09D0BCF1020F06D0416A41F436
:1010B0008021416210BC0120704739B1D0F800C0D6
:1010C000DCF810C01CF0030F7DD006E0D0F800C0A3
:1010D000DCF80CC01CF0030F7BD04FF4D87C046804
:1010E0000CEB011C54F80C4004F004049460002C38
:1010F0007DD0046854F80C40E4085460046854F847
:101100000CC00CF0020CC2F80CC04FF4DA7C04687E
:101110000CEB011C54F80C4004F00F04146104683B
:1011200054F80C40C4F307249461046854F80CC0CC
:101130004FEA1C4CC2F814C04FF4DC72D0F800C067
:1011400002EB01125CF802C083F800C0D0F800C0C6
:101150005CF802C04FEA1C2C83F801C0D0F800C034
:101160005CF802C04FEA1C4C83F802C0D0F800C003
:101170005CF80220120EDA704FF4DE72D0F800C074
:1011800002EB01125CF802C083F804C0D0F800C082
:101190005CF802C04FEA1C2C83F805C0D0F800C0F0
:1011A0005CF802C04FEA1C4C83F806C0D0F800C0BF
:1011B0005CF80220120EDA71F9B10068016941F0A1
:1011C0002001016102E00BE003E010E010BC002010
:1011D0007047416A41F40011416210BC0120704720
:1011E000416A41F40011416210BC0120704704685B
:1011F00054F80C40640D146080E70068C16841F049
:101200002001C160DEE72DE9F05F05460024286873
:101210004669D0F804908768D0F80CA0D0F810B0D8
:10122000D0F8188016F0010F54D017F0010F17D026
:101230000121816017F0020F03D0284600F096FAD2
:101240000EE017F0040F02D04FF4006408E017F02E
:10125000080F02D04FF4805402E0284600F085FACF
:1012600017F4807F19D029684FF48070886017F4D4
:10127000007F03D0284600F07BFA0EE017F4806F61
:1012800002D044F4005408E017F4006F02D044F494
:10129000804402E0284600F06AFA17F4803F19D033
:1012A00029684FF48030886017F4003F03D0284647
:1012B00000F060FA0EE017F4802F02D044F40044EE
:1012C00008E017F4002F02D044F4803402E02846EE
:1012D00000F04FFA16F0080F07D01AF0100F04D0E4
:1012E00044F4007429681020C86016F0040F4FF011
:1012F000080707D01AF0080F04D02868C7602846EE
:1013000000F0CEF916F0020F07D02868C06810F080
:10131000030F02D0284600F0C5F916F0400F07D0A1
:101320001BF0100F04D044F4806429681020086179
:1013300016F0200F07D01BF0080F04D028680761B3
:10134000284600F0DDF916F0100F07D02868006974
:1013500010F0030F02D0284600F0D3F916F4003F36
:1013600008D019F0100F05D02968102048602846D1
:1013700000F0C8F916F4803F07D019F0080F04D028
:1013800028684760284600F0F6F916F4004F4AD066
:1013900019F0040F44D016F4807F04D018F0010F28
:1013A00001D044F0010416F4007F04D018F0020FBD
:1013B00001D044F0020416F4806F04D018F0040F3A
:1013C00001D044F0040416F4006F29D018F0700F17
:1013D00026D008F07000402815D006DC102809D06F
:1013E00020280AD0302816D10AE050280ED06028D4
:1013F00011D10EE044F008040DE044F010040AE0BE
:1014000044F0200407E044F0400404E044F0800489
:1014100001E044F480742868816921F070018161E1
:10142000296804204860002C05D0686A204368625F
:101430002846FFF731FEBDE8F09F70B50446002C4A
:1014400003D094F8200010B104E0012070BD2046C4
:1014500000F0A8F82068016841F00101016000F087
:10146000F5FC0546206840684FF0050610F0010FB6
:1014700011D100F0EBFC401B0A2807D9606A40F448
:101480000030606284F82060012070BD20684068F0
:1014900010F0010FEDD02068016821F00201016019
:1014A00000F0D4FC05462068406810F0020F11D00F
:1014B00000F0CCFC401B0A2807D9606A40F40030D9
:1014C000606284F82060012070BD2068406810F0E0
:1014D000020FEDD1207E01283FD02068016821F065
:1014E00080010160607E01283DD02068016821F004
:1014F00040010160A07E01283BD02068016821F0F6
:1015000020010160E07E012839D02068016841F0A7
:1015100010010160207F012837D02068016821F088
:1015200008010160607F012835D02068016821F042
:1015300004010160E168A068626908432169114300
:1015400008436168491E08432168C8610020606241
:10155000012084F82000002070BD2068016841F05F
:1015600080010160BEE72068016841F04001016030
:10157000C0E72068016841F020010160C2E72068EF
:10158000016821F010010160C4E72068016841F0A2
:1015900008010160C6E72068016841F004010160AC
:1015A000C8E70000F0B587B0044614216846FEF78E
:1015B0003BFF364B3648DFF8D0E01968D4F800C05E
:1015C000334A03250226092710300024491CF4451C
:1015D00022D11960012907D1016841F00071016031
:1015E000006800F000700590106840F0080010607E
:1015F0001068CDE9005600F00800CDE90470694696
:101600002448CDE9024500F0F3FA00220521142018
:1016100000F090FC142033E0DFF87CE0F44531D199
:10162000D0F800C04CF0806CC0F800C0D0F800C00A
:1016300001290CF0806CCDF814C0196007D1016845
:1016400041F000710160006800F0007005901068C2
:1016500040F002001060106802AB00F0020005903C
:101660004FF44050CDE9000683E8B00069460B48CE
:1016700000F0BEFA00220521402000F05BFC402073
:1016800000F04AFC07B0F0BD0064004010000020EC
:1016900030380240000C0240006800400004024064
:1016A0007047000000B58BB001AB03AA0021FFF723
:1016B000F4FC0398A0F2012006281AD80E49C0B203
:1016C00000EB800208700D4901EB420031F8123046
:1016D0000381BDF804305BBA21F81230BDF8061062
:1016E00049BA4180BDF8081049BA81809DF80A10B6
:1016F00081710BB000BD0000700100204845002042
:1017000070477047704770B5044694F82000012870
:1017100005D0606A40F400206062012070BD0220A4
:1017200084F820002068016821F00101016000F0C8
:101730008DFB05462068406810F0010F12D000F0C4
:1017400085FB401B0A2808D9606A40F400306062BB
:10175000052084F82000012070BD2068406810F04A
:10176000010FECD10020606270BD70477047704778
:1017700070477047704770472DE9F84304464FF0B3
:101780000008CDF8008076484FF416510068B0FB91
:10179000F1F7A56D2E6894F85C00082101FA00F0BD
:1017A000304211D02068026812F0040F0CD0026899
:1017B00022F00402026094F85C0001FA00F0A860D4
:1017C000606D40F00100606594F85C004FF0010925
:1017D00009FA00F0304209D02168496911F0800F00
:1017E00004D0A860606D40F00200606594F85C1061
:1017F00004208840304209D02168096811F0020FA6
:1018000004D0A860606D40F00400606594F85C103E
:1018100010208840304224D02168096811F0080F58
:101820001FD0A8602068016811F4802F0DD00068D7
:1018300010F4002F04D0A16C99B12046884710E025
:10184000216C71B1204688470BE0016811F4807F5C
:1018500003D1016821F008010160216C09B1204623
:10186000884794F85C1020208840304251D021688D
:10187000096811F0100F4CD0A86094F835000528C5
:101880000DD02068016811F4802F32D0006810F468
:10189000002F29D0E16B59B32046884739E02068F2
:1018A000016821F0160101602068416921F0800182
:1018B0004161206C08B9A06C20B12068016821F05A
:1018C0000801016094F85C003F2101FA00F0A86073
:1018D00084F8359084F83480216D00293ED001B021
:1018E0002046BDE8F0430847616C09B120468847AF
:1018F0000FE0016811F4807F07D1016821F0100129
:10190000016084F8359084F83480E16B09B1204699
:101910008847606D002821D0606D10F0010F15D050
:10192000052084F835002068016821F0010101607C
:101930000098401C0090B84204D82068006810F05D
:10194000010FF5D184F8359084F83480E16C0029DA
:1019500004D001B02046BDE8F0430847BDE8F88355
:10196000F40000202DE9F041044600F06FFA05462E
:10197000DCB1022084F83500002684F83460206849
:10198000016821F0010101602068006810F0010F7A
:1019900013D000F05BFA401B052809D920206065B0
:1019A000032084F83500BDE8F0810120BDE8F08116
:1019B0002068006810F0010FEBD121680868234A05
:1019C0001040A3686268D4F810C01A43E36843EA81
:1019D0000C031A4363691A43A3691A43E3691A4360
:1019E000236A1A431043626A042A03D1236BE26A12
:1019F0001A43104308602068406920F00701606ABC
:101A000040EA0105012704280ED1A06A0543E06AD7
:101A100050B12046FFF79AF830B14020606584F855
:101A200035700120BDE8F081206845612046FFF750
:101A300073F894F85C103F2202FA01F18160666548
:101A400084F835700020BDE8F08100003F8010F080
:101A500070B5044600F0FAF90546B4F1FF3F02D034
:101A600004480078044400F0F1F9401BA042FAD386
:101A700070BD0000E80000202DE9F04104460F464B
:101A8000DFF89C8098F8180001280AD0012088F817
:101A900018004CF25030FFF7A7F90246100003D0AF
:101AA00037E00220BDE8F0814FF0FF303860206859
:101AB0001C4E012815D0A568E0682844A84226D904
:101AC000217C2846FFF784F84CF25030FFF78CF960
:101AD0000246306820F0FA003060100011D03D60FE
:101AE00015E0207C6168FFF7CBF84CF25030FFF72F
:101AF0007BF90246306820F0040020F4004030609A
:101B000005E06D1CA168E0680844A842D8D8FFF73A
:101B10008BF8002088F818001046BDE8F08100001E
:101B200038080020103C02400348016841F00041A1
:101B30000160002070470000103C02402DE9F04198
:101B40000646884614461D461A4F387E012807D09F
:101B5000012038764CF25030FFF746F918B115E005
:101B60000220BDE8F081AEB1012E18D0022E1BD0AC
:101B700022462B464046FFF7B5F84CF25030FFF7AF
:101B800033F90D490A6822F001020A600021397612
:101B9000BDE8F081E1B24046FFF794F8EDE7A1B26D
:101BA0004046FFF7B9F8E8E721464046FFF7C6F898
:101BB000E3E7000038080020103C024000200849FC
:101BC0000A6812F0004F09D0074A064B1360074B12
:101BD0001360096811F0004F00D001207047000029
:101BE000103C024023016745043C0240AB89EFCD25
:101BF0002DE9F84F0022DFF82C92DFF82CE2DFF815
:101C00002CA24FF0010B03274FF00F080BFA02FC38
:101C10000B6803EA0C0363457AD10C7904F00304E2
:101C2000012C01D0022C14D18568540007FA04F667
:101C3000B543CE6806FA04F42C438460446824EA71
:101C40000C0C0C79C4F30014944044EA0C0CC0F85A
:101C500004C0D1F804C037EA0C0C0CD0C4684FEAB9
:101C6000420C07FA0CF5AC438D6805FA0CFC4CEA03
:101C7000040CC0F80CC091F804C00CF0030CBCF1CB
:101C8000020F12D14FEAD20C00EB8C04256A4FEA06
:101C9000427C4FEADC6C08FA0CF6B5430E6906FA92
:101CA0000CFC4CEA050CC4F820C004684FEA420C56
:101CB00007FA0CF5AC430D7905F0030505FA0CFCA9
:101CC0004CEA040CC0F800C0D1F804C01CF4403F3A
:101CD0001ED0D9F800C04CF4804CC9F800C0D9F827
:101CE00000C00CF4804CCDF800C022F0030C0CF1C5
:101CF000804505F59835D5F808C89407240F08FAEB
:101D000004F62CEA0606704503D14FF0000C2FE0D4
:101D100067E0A0F1804CBCF5013C68D0A0F1804C9C
:101D2000BCF5023C66D0A0F1804CBCF5033C64D00D
:101D3000A0F1804CBCF5043C62D0A0F1804CBCF515
:101D4000053C60D0A0F1804CBCF5063C5ED0A0F113
:101D5000804CBCF5073C5CD0A0F1804CBCF5083C45
:101D60005AD0A0F1804CBCF5093C58D04FF00A0C79
:101D70000CFA04FC4CEA060CC5F808C8DAF800C0F6
:101D80002CEA030C4C6814F4801F01D04CEA030CBD
:101D9000CAF800C0264CD4F800C02CEA030C4D68E9
:101DA00015F4001F01D04CEA030CC4F800C0214C0C
:101DB000D4F800C02CEA030C4D6815F4003F01D0A4
:101DC0004CEA030CC4F800C01B4CD4F800C02CEA49
:101DD000030C4D6815F4803F01D04CEA030CC4F8A5
:101DE00000C0521C102AFFF411AFBDE8F88F4FF06D
:101DF000010CBDE74FF0020CBAE74FF0030CB7E758
:101E00004FF0040CB4E74FF0050CB1E74FF0060CAF
:101E1000AEE74FF0070CABE74FF0080CA8E74FF028
:101E2000090CA5E74438024000000240083C01408C
:101E30000C3C0140043C0140003C0140002A01D020
:101E40008161704709048161704700000148806822
:101E500070470000E80000200248816802781144C1
:101E600081607047E800002010B50B48016841F41C
:101E700000710160016841F480610160016841F412
:101E800080710160032000F089F80F2000F006F84F
:101E900000F026F8002010BD003C024070B504465A
:101EA0000D4D4FF47A712878B1FBF0F00B490968B9
:101EB000B1FBF0F000F072FD08B1012070BD102CF4
:101EC00007D200222146501E00F034F86C6000203A
:101ED00070BD012070BD0000E8000020F40000206B
:101EE0000C4882B0016841F480410160006800F450
:101EF000804000900748001F016841F08051016058
:101F00000068002200F0805000900F21901E02B067
:101F100000F010B84438024000280ADB00F01F012E
:101F2000012202FA01F14009800000F1E020C0F82E
:101F30000011704710B4184B1B68C3F30223C3F1A0
:101F4000070CBCF1040F01D94FF0040C1C1D072C29
:101F500001D2002300E0DB1E012404FA0CFCACF1EA
:101F6000010C0CEA0101994004FA03F35B1E1A40CC
:101F70001143002806DB00F1E020090180F800147D
:101F800010BC704700F00F0000F1E020090180F85C
:101F9000141D10BC704700000CED00E000F00700BD
:101FA000064A11684FF6FF03194041EA002040F04D
:101FB000FD7040F080601060704700000CED00E0A4
:101FC0002DE9F04704460D46002C13D0DFF854915C
:101FD000D9F80000EFB200F00F00A8420DD289F846
:101FE0000070D9F8000000F00F00A84205D00120D1
:101FF000BDE8F0870120BDE8F08720684A4E10F068
:10200000020F14D010F0040F03D0306840F4E050F9
:102010003060207810F0080F03D0306840F4604042
:1020200030603068A16820F0F0000843306020780C
:1020300010F0010F3ED060683C49012808D002280A
:102040000DD003280BD0096811F0020F28D00AE048
:10205000096811F4003F06D10120BDE8F087096846
:1020600011F0007F19D0316821F00301084330607E
:10207000FFF7ECFE80463068616800F00C00B0EBC2
:10208000810F17D041F2883AFFF7E0FEA0EB08007D
:10209000504508D90320BDE8F0870120BDE8F0874E
:1020A0000120BDE8F0873068616800F00C00B0EBFB
:1020B000810FE9D1D9F8000000F00F00A8420AD939
:1020C00089F80070D9F8000000F00F00A84202D093
:1020D0000120BDE8F087207810F0040F05D03068AB
:1020E000E16820F4E05008433060207810F0080FD9
:1020F00006D03068216920F4604040EAC1003060B9
:1021000000F042F831680A4AC1F30311515CC8403B
:102110000849086008480068FFF7C0FE0020BDE8D5
:10212000F0870000003C02400838024000380240BE
:10213000907B0008F4000020EC00002001480068BB
:1021400070470000F400002000B5FFF7F7FF0449D6
:102150000968044AC1F38221515CC84000BD0000F7
:1021600008380240A07B000800B5FFF7E7FF0449EC
:102170000968044AC1F34231515CC84000BD000007
:1021800008380240A07B000810B51748006810F01E
:102190000C01164816D0164B042912D0082911D16B
:1021A000144C216801F03F02216811F4800F0AD01D
:1021B0002068C0F38810A0FB03010023FEF7EAF8B3
:1021C00009E0184610BD21680023C1F38811A1FB66
:1021D0000001FEF7DFF82168C1F30141491C490005
:1021E000B0FBF1F010BD0000083802400024F400FC
:1021F000001BB700043802402DE9F84F0446002CBC
:1022000012D02078FB4E10F0010FA6F1040563D028
:10221000301D016801F00C0104290CD0006800F0A9
:102220000C00082803D010E00120BDE8F88F3068CA
:1022300010F4800F09D0286810F4003F4CD060687B
:10224000002849D10120BDE8F88F6068B0F5803FD3
:1022500014D0B0F5A02F16D0286820F48030286064
:10226000286820F480202860606810B3FFF7EEFD36
:102270000746286810F4003F0ED02DE0286840F48F
:1022800080302860F0E7286840F4802028602868C3
:1022900040F480302860E7E7FFF7D8FDC01B6428D2
:1022A00002D90320BDE8F88F286810F4003FF3D06E
:1022B00012E0FFF7CBFD0746286810F4003F0BD073
:1022C000FFF7C4FDC01B642802D90320BDE8F88FC6
:1022D000286810F4003FF3D12078C74F10F0020FA8
:1022E0004FF0000957D0C548016811F00C0F14D009
:1022F000006800F00C00082803D1306810F4800F4B
:102300000BD0E06880B301203860FFF79FFD804666
:10231000286810F0020F12D01EE0286810F0020F9B
:1023200005D0E068012802D00120BDE8F88F2868B8
:10233000216920F0F80040EAC10028602BE0FFF797
:1023400085FDA0EB0800022802D90320BDE8F88F24
:10235000286810F0020FF2D02868216920F0F800F8
:1023600040EAC100286016E0FFE7C7F80090FFF7D9
:102370006DFD8046286810F0020F0CD0FFF766FD57
:10238000A0EB0800022802D90320BDE8F88F2868D6
:1023900010F0020FF2D1207810F0080F35D09848D5
:1023A000DFF860A26169C1B101210160FFF74EFD54
:1023B0008046DAF8000010F0020F26D1FFF746FD44
:1023C000A0EB0800022802D90320BDE8F88FDAF854
:1023D000000010F0020FF1D017E0C0F80090FFF7F6
:1023E00035FD8046DAF8000010F0020F0DD0FFF73F
:1023F0002DFDA0EB0800022802D90320BDE8F88FCC
:10240000DAF8000010F0020FF1D1207810F0040F7C
:1024100071D04FF000087C48006810F0805F0AD14E
:102420007948016841F080510160006800F08050F7
:1024300000904FF00108DFF8D4B1DBF8000010F491
:10244000807F1BD1DBF8000040F48070CBF80000E7
:10245000FFF7FCFC8246DBF8000010F4807F0DD112
:10246000FFF7F4FCA0EB0A00022802D90320BDE824
:10247000F88FDBF8000010F4807FF1D0A068DFF85F
:1024800090B1012818D005281DD0DBF8000020F0FD
:102490000100CBF80000DBF8000020F00400CBF8CE
:1024A0000000A06840B3FFF7D1FC8246DBF80000D3
:1024B00010F0020F14D03EE0DBF8000040F0010005
:1024C000CBF80000EDE7DBF8000040F00400CBF8AB
:1024D0000000DBF8000040F00100CBF80000E0E76E
:1024E000FFF7B4FCA0EB0A0141F28830814204D925
:1024F0000320BDE8F88F26E005E0DBF8000010F0CF
:10250000020FEDD017E0FFF7A1FC8246DBF80000D8
:1025100010F0020F0FD0FFF799FCA0EB0A0141F277
:102520008830814202D90320BDE8F88FDBF8000033
:1025300010F0020FEFD1B8F1010F04D13248016859
:1025400021F080510160A069F0B32C4909684FF077
:10255000FF3801F00C01082966D0022810D0C7F816
:102560006090FFF773FC0446286810F0007F2BD0C2
:10257000FFF76CFC001B022851D90320BDE8F88F3F
:10258000C7F86090FFF762FC8146286810F0007F72
:102590000CD0FFF75BFCA0EB0900022802D9032056
:1025A000BDE8F88F286810F0007FF2D1216AE06959
:1025B000A26A0843616A08EB5202890141EA0241BA
:1025C000084394F82C1000E055E040EA01603060C8
:1025D00001203866FFF73AFC0446286810F0007FB7
:1025E00049D1FFF733FC001B022813D90320BDE8B3
:1025F000F88F0000043802400000474208380240CB
:10260000800E47427438024040380240007000405B
:1026100070380240286810F0007FE2D02BE0286874
:1026200010F0007FA4D126E0012822D03068E269B2
:1026300000F4800191421AD1226A00F03F019142D8
:1026400015D147F6C071626A0140B1EB821F0ED10D
:10265000A26A00F4403108EB5202B1EB024F06D1FE
:1026600094F82C1000F07060B0EB016F03D00120E3
:10267000BDE70120BBE70020B9E770B50446002C98
:1026800009D0606A002540B125616561A56294F8B2
:10269000510040B10CE0012070BD6068B0F5827F50
:1026A000F4D0E561F2E784F85050204600F044F899
:1026B000022084F851002068016821F04001016087
:1026C000A088218900F4827001F404410843A189A3
:1026D00001F400610843217C01F002010843217DDF
:1026E00001F001010843218B01F400710843217FAF
:1026F00001F03801084394F8201001F080010843EC
:10270000218D01F40051084321680860A16904206B
:1027100000EA114094F8241001F0100101432068F0
:1027200041602068C16921F40061C16165650120D3
:1027300084F85100002070BD10B586B00446142105
:102740006846FDF771FE14492068884221D113487C
:102750000021026842F480120260006800F48010D8
:1027600005900E481438026842F0200202600068AA
:1027700000F0200005904FF4607000900220CDE939
:102780000101032003900520049069460448FFF7E7
:102790002FFA06B010BD000000500140443802403E
:1027A000001402402DE9F84F04460A9E8A469346DB
:1027B0001F4601254FF0000894F8500001280ED064
:1027C000012084F85000FFF741FB814694F8510046
:1027D000616801280ED0B1F5827F07D102E00220A6
:1027E000BDE8F88FA16809B9042803D04FF00208AA
:1027F00000F0CBB8BAF1000F1DD0BBF1000F1AD01A
:10280000380018D094F85100042802D0052084F82C
:10281000510000206065C4F838B0E787A787C4F886
:1028200030A0E786A786206460642068016811F004
:10283000400F03D006E04FF00108A6E0016841F028
:1028400040010160E068B0F5006F05D060680028C5
:1028500048D0012F46D07EE0606808B1012F3AD100
:10286000206B21680088C860206B801C2063E08E8C
:10287000401EE0862FE02068816811F0020F0DD025
:10288000E18E59B1012D09D1216B0988C160206BFE
:10289000801C2063E08E401EE08600252068816851
:1028A00011F0010F0BD0E18F49B1C068A16B088016
:1028B000A06B801CA063E08F401EE0870125FFF71E
:1028C000C5FAA0EB0900B04205D3B6F1FF3F02D034
:1028D0004FF0030859E0E08E0028CCD1E08F0028AB
:1028E000C9D13EE0206B216800780873206B401C42
:1028F0002063E08E401EE0862DE02068816811F0A4
:10290000020F0DD0E18E59B1012D09D1216B09784B
:102910000173206B401C2063E08E401EE086002582
:102920002068816811F0010F0BD0E18F49B1C068B8
:10293000A16B0870A06B401CA063E08F401EE08775
:102940000125FFF783FAA0EB0900B04202D3B6F1EC
:10295000FF3F11D186B1E08E0028CED1E08F002854
:10296000CBD14A463146204601F042F938B14FF00A
:1029700001082020606508E04FF0030805E0A0682A
:1029800018B92068C16880680090012084F851005F
:10299000002084F850004046BDE8F88F401EB0F19A
:1029A000807F01D3012070474FF0E0214861044A45
:1029B000F020107000208861072008610020704717
:1029C00023ED00E030B490F83C20012A44D00124EB
:1029D00080F83C40022280F83D200268D2F804C012
:1029E00093682CF0700C0D6845EA0C0CC2F804C01A
:1029F0000268A2F1804CBCF5803C20D0B2F1804F3F
:102A00001DD0A2F1804CBCF5806C18D0A2F1804C96
:102A1000BCF5006C13D0A2F1804CBCF5406C0ED01C
:102A2000A2F1804CBCF5823C09D0A2F1804CBCF5EF
:102A3000A03C04D0A2F1804CBCF5C05C04D123F0D2
:102A4000800349681943916080F83D40002180F877
:102A50003C1030BC0020704730BC0220704710B5DD
:102A60000446002C03D094F83D0010B107E001208B
:102A700010BD002084F83C00204600F01FF8022022
:102A800084F83D00211D206801F0D4F9012084F86C
:102A9000460084F83E0084F83F0084F8400084F843
:102AA000410084F8420084F8430084F8440084F82C
:102AB000450084F83D00002010BD000008B5006806
:102AC000B0F1804F08D10548016841F00101016073
:102AD000006800F00100009008BD0000403802408E
:102AE00070B50446002594F83C00012818D0012652
:102AF00084F83C60022084F83D002068826822F05F
:102B0000770222F47F4282600868502839D00EDCB8
:102B1000202854D006DC002851D0102811D14EE0D6
:102B2000022070BD30284AD040280AD13DE06028FC
:102B300031D070280DD0B0F5805F03D0B0F5005FC4
:102B400013D0012584F83D60002084F83C0028461D
:102B500070BDCB684A688968206801F0E0F9206898
:102B6000816841F077018160ECE7CB684A68896849
:102B7000206801F0D4F92068816841F480418160C7
:102B8000E0E7CA684968206801F0B8FA5021206877
:102B900001F0D0F9D6E7CA684968206801F0C1FAA7
:102BA0006021206801F0C6F9CCE7CA68496820684E
:102BB00001F0A4FA4021206801F0BCF9C2E72268C4
:102BC0000146104601F0B6F9BCE7000010B586B02A
:102BD000044614216846FDF727FC236800211748A6
:102BE0000222B3F1804F17D0154CA34212D10368D3
:102BF00043F080030360006800F0800005904020EF
:102C00000090CDE901210920CDE9031069460D4866
:102C1000FEF7EEFF06B010BD036843F0010303604A
:102C2000006800F00100059003200090CDE901212B
:102C30000120CDE9031069460348E9E73038024036
:102C400000180040001C02400000024070B504461D
:102C50000D46002694F83C0001280FD0012084F88E
:102C60003C006AB1042A1FD0082A32D00C2A44D072
:102C70000126002084F83C00304670BD022070BD63
:102C80002946206801F05EF92068816941F0080159
:102C900081612068816921F0040181612068816976
:102CA0002A6911438161E4E72946206801F082F92D
:102CB0002068816941F4006181612068816921F4A3
:102CC00080618161206881692A6941EA022181610C
:102CD000CFE72946206801F0A9F92068C16941F0D1
:102CE0000801C1612068C16921F00401C161206847
:102CF000C1692A691143C161BBE72946206801F017
:102D0000D1F92068C16941F40061C1612068C169DD
:102D100021F48061C1612068C1692A6941EA022108
:102D2000C161A6E710B50446002C03D094F83D001D
:102D300010B107E0012010BD002084F83C002046BF
:102D400000F01EF8022084F83D00211D206801F0EB
:102D500071F8012084F8460084F83E0084F83F00B2
:102D600084F8400084F8410084F8420084F843006D
:102D700084F8440084F8450084F83D00002010BD2C
:102D800008B500680649884208D10648016841F044
:102D900040010160006800F04000009008BD0000A4
:102DA000001800404038024010B50446002909D000
:102DB00004290AD008290BD094F8410001280AD030
:102DC000012010BD94F83E00F8E794F83F00F5E7C5
:102DD00094F84000F2E70220D9B3042947D008292B
:102DE00048D084F841000122206801F089F8234A84
:102DF00020682349904201D0884203D1436C43F4B8
:102E0000004343642068904224D0B0F1804F21D029
:102E1000A0F18042B2F580621CD0A0F18042B2F5F0
:102E2000006217D0A0F18042B2F5406212D0884211
:102E300010D0A0F18041B1F5A0310BD0A0F18041BC
:102E4000B1F5C05106D0016841F0010101600020D8
:102E500010BD09E0816801F007010629F7D001687B
:102E600041F001010160F2E784F83E00BBE784F81D
:102E70003F00B8E784F84000B5E7000000000140DB
:102E80000004014070B50446002C04D094F83D00C5
:102E9000002510B106E0012070BD84F83C502046AA
:102EA00000F022F8242084F83D002068C16821F455
:102EB0000051C160204601F047F92068016921F402
:102EC000904101612068416921F02A014161206837
:102ED000C16841F40051C1602564202084F83D00A0
:102EE00084F83E00002070BD2DE9F04786B006460C
:102EF00014216846FDF798FA4C484B4B3268002481
:102F00004A491438022503274FF480694FF4403AA8
:102F10009A424ED10A6842F010020A60096801F034
:102F200010010591016841F002010160016801F0A2
:102F300002010591016841F001010160006802AAE7
:102F400000F0010005908020CDE900054FF0070852
:102F500082E8900169463648FEF74AFE2802CDE92C
:102F6000000502AA694682E890013248FEF740FE59
:102F7000324D314828604FF00060C5E90104C5E9D1
:102F800003496C61AC61C5E9074A28466C62FEF7EB
:102F9000E9FC08B1FDF71AFEB563002205212520E2
:102FA000AE63FEF7C7FF2520FEF7B6FF06B0BDE80B
:102FB000F087234B9A42F9D10A6842F020020A6056
:102FC000096801F020010591016841F040010160AC
:102FD0000068029400F0400005904FF48440CDE971
:102FE00000050820CDE9037069461648FEF700FE8B
:102FF000124D11486035603028604FF020606860E5
:1030000005F10802402082E811026C61AC61C5E95B
:10301000074A28466C62FEF7A5FC08B1FDF7D6FD0D
:103020007563AE63C2E700000010014044380240FF
:1030300000040240000002404064024040060020BC
:1030400000140140001802402DE9F84304460E46E2
:1030500015461F4694F83D00202802D00220BDE806
:10306000F883C6B1BDB194F83C00012816D0012008
:1030700084F83C004FF00009C4F84090212084F807
:103080003D00FEF7E3FE8046A584E584A068B0F528
:10309000805F06D007E00120BDE8F8830220BDE88C
:1030A000F883206980B13546002684F83C90E08C96
:1030B000B8B14346002280212046009701F0C2F8B3
:1030C00020B10320BDE8F8830025EEE7A5B1216813
:1030D000287848606D1CE08C401EE084E08C00285D
:1030E000E7D14346002240212046009701F0AAF88C
:1030F00048B10320BDE8F88330882168C0F3080098
:103100004860B61CE7E7202084F83D000020BDE8B9
:10311000F883FEE730B505461088154B0C4668B9B4
:1031200003F10C0090ED000A83ED000A90ED010A16
:1031300083ED010A90ED020A83ED020A0C490C4866
:10314000A03902F0EDFF93ED000A84ED000A93ED43
:10315000010A84ED010A93ED020A84ED020AB7EE3A
:10316000000A85ED000A85ED010A85ED020A30BDF1
:10317000F8070020084891ED000A80ED000AD1ED23
:10318000010AC0ED010A91ED021A80ED021A0C3815
:1031900080EC030A70470000040800202DED068B28
:1031A00084B0072000E0642003F0ACF903F0F6F8E7
:1031B0000028F8D1694A101DCDE90102A2F1100AD8
:1031C0000AF10401FDF7BCFB5346A3F164020AF1C6
:1031D0004806A2F10C01A1F10C00009602F0C6FF16
:1031E000A6F1AC02A2F10C0101F11800FDF7B0F953
:1031F000A6F1B808A6F1D00498ED000AA4F10C05D8
:1032000084ED000AA4F1180985ED000A89ED000A91
:1032100098ED010A002084ED010A85ED010A89ED8F
:10322000010A98ED020A84ED020A85ED020A89ED91
:10323000020A03F0A3F904F03BFB494F4949386502
:103240001020C8610846FFF718FA08B1FDF7BEFC68
:1032500001203870B3464F469FED438ADFED438A25
:103260009FED439A9FED43AA3C4E583E06F108005D
:10327000DFED419A06F10C09CDF80C00DDE9010201
:103280000AF10401FDF75CFB344BCDF800B0103BB4
:10329000A3F16402A2F10C01A1F10C0002F066FF9F
:1032A00095ED000A2D4B87ED000AD4ED000A743B22
:1032B000C5ED000A60EE880AA3F1240202F10C01B8
:1032C00001F1240040EE280A98ED000A40EE090AB8
:1032D000C4ED000A95ED011A87ED011A94ED010A7B
:1032E00085ED010A60EE080A98ED010A41EE280A10
:1032F00040EE090AC4ED010A95ED021A87ED021AA3
:10330000D4ED020AC5ED020A60EE880A98ED020AC1
:1033100041EE280A40EE090AB0EE4A0AC4ED020A5C
:10332000FDF770FA0D49321D5839A1F11000039BC9
:1033300002F070F80020494606EB800292ED000A88
:1033400001EB8002401C20EE290AC0B2032882ED66
:10335000000AF1D3012003F0D5F88FE7E40700203D
:1033600014000020D00400205AF8F63F5D896EBF9B
:10337000D5A9183B6F12833A333365420F4810B515
:103380000D4901600321416000214FF4102281604A
:10339000C0E903124FF40012426101764176817652
:1033A000C17601774177FEF748F8002803D0BDE8E1
:1033B0001040FDF70BBC10BD0064004080040020ED
:1033C0000F4810B50D4901600321416000214FF401
:1033D00010228160C0E903124FF4001242610176AD
:1033E00041768176C17601774177FEF726F800288D
:1033F00003D0BDE81040FDF7E9BB10BD00680040F8
:10340000A80400200D4808B5016841F4800101605E
:103410000068002200F48000009005213A20FEF7A9
:1034200089FD3A20FEF778FD002205214520FEF7B0
:1034300081FDBDE808404520FEF76EBD30380240F2
:1034400010B59CB01C2216496846FCF7D4FF002139
:10345000684603F064F8134C11491C22E0601C31EB
:1034600007A8FCF7C8FF002107A803F058F80C498B
:1034700020601C2238310EA8FCF7BDFF00210EA8E9
:1034800003F04DF8064960601C22543115A8FCF782
:10349000B2FF002115A803F042F8A0601CB010BDD7
:1034A000047B0008000000202DE9F04786B01421BD
:1034B0006846FCF7B9FF3D480024016841F002016D
:1034C0000160016801F002010591016841F04001CD
:1034D0000160016801F040010591016841F00101BE
:1034E0000160016801F001010591016841F00801E6
:1034F0000160016801F008010591016841F0800157
:103500000160016801F080010591016841F020012E
:103510000160016801F020010591016841F010018E
:1035200001600068DFF8888000F01000059000223C
:103530003C214046FEF782FCDFF8789044F24006DA
:10354000002231464846FEF779FCDFF86CA04FF4C4
:103550000067002239465046FEF770FCF8100090D4
:103560004FF48810CDE9010469461448FEF740FB8A
:103570003C2000900125CDE9015469464046039462
:10358000FEF736FB0096CDE90154694648460394A0
:10359000FEF72EFB0097CDE901546946504603948F
:1035A000FEF726FB06B0BDE8F08700003038024089
:1035B000001C0240001402400010024000040240BF
:1035C000104810B50E4901604FF48271416000212E
:1035D0008160C1604FF400720161C0E905123022C0
:1035E000C0E90721416281620A21C162FFF745F803
:1035F000002803D0BDE81040FDF7E8BA10BD000078
:1036000000500140D004002010B588B01C2168464D
:10361000FCF70AFF114810490024C0E900144CF2DD
:103620005031C0E9024104618461FFF77BFB08B1BE
:10363000FDF7CCFA6020CDE900040294002269462F
:1036400006480494FFF702FB08B1FDF7BFFA0348F0
:10365000FFF7BCFA08B010BD00180040700500204C
:1036600010B58EB000240794089409940A940B9422
:103670001C2168460C94FCF7D7FE23484FF080418C
:1036800001605321C0E9011444F61F61C0E903142D
:103690008461FFF7E4F908B1FDF798FA4FF4805020
:1036A000079007A91848FFF71BFA08B1FDF78EFA33
:1036B0001548FFF737FB08B1FDF788FA0B940BA903
:1036C00011480C94FFF77EF908B1FDF77FFA6020EE
:1036D00000904FF47A70CDE90104002269460A484F
:1036E0000494FFF7B3FA08B1FDF770FA04226946B3
:1036F0000548FFF7ABFA08B1FDF768FA0248FFF793
:1037000065FA0EB010BD0000280500200C4810B569
:103710000A4901600B494160002181600C22C160AF
:10372000C0E904128161C161FFF7ACFB002803D03E
:10373000BDE81040FDF74ABA10BD0000001001407E
:10374000B8050020A08601000C4810B50A490160A8
:103750004FF4E1314160002181600C22C160C0E979
:1037600004128161C161FFF78DFB002803D0BDE821
:103770001040FDF72BBA10BD00140140FC050020DD
:10378000FEE77047A0B1D0ED101AC0ED111A90ED10
:103790000F1A80ED101AC0ED060A80ED070A30EE10
:1037A000C00A80ED0F0A017829B101293BD078E0E9
:1037B0009FED3D0A7047D0ED010A60EE801AC0ED22
:1037C000091AD0ED0A0A90ED022A42EE000A30EE04
:1037D000410AC0ED0A0A90ED0D2A80ED0E2A90ED07
:1037E0000C2A80ED0D2A80ED0C0A90ED031A21EED3
:1037F000001A80ED0B1A90ED050AF4EEC00AF1EE06
:1038000010FA09DCB1EE400AF4EEC00AF1EE10FA4B
:1038100002D390ED0A0A01E080ED0A0A31EE800A37
:1038200030EE010A2BE070EE410A90ED012A20EE05
:10383000822A80ED092AD0ED020A60EE800AC0EDEE
:103840000A0AD0ED0D2A72EE200AC0ED0E2AD0ED44
:103850000C2AC0ED0D2AF0EE002A01EE620A30EECD
:10386000210A80ED0C0A90ED031A21EE000A80ED8A
:103870000B0A30EE800AD0ED080A30EE200A80ED07
:10388000080AD0ED040AB4EEE00AF1EE10FA06DC04
:10389000F1EE600AB4EEE00AF1EE10FA01D2C0EDEA
:1038A000080A90ED080A704700000000002819D0AF
:1038B0009FED0D0A80ED110A80ED100A80ED0F0AD0
:1038C00080ED0E0A80ED0D0A80ED0C0A80ED0B0AEA
:1038D00080ED0A0A80ED090A80ED080A80ED060AEB
:1038E00080ED070A7047000000000000002828D083
:1038F000002A26D0017092ED001A80ED011A92ED97
:10390000011A80ED021A92ED021A80ED031A80ED81
:10391000040A9FED0C0AC0ED050A80ED0E0A80ED49
:103920000D0A80ED0C0A80ED080A80ED0B0A80ED8F
:103930000A0A80ED090A80ED110A80ED100A80ED77
:103940000F0A70470000000030B5144B1C68656911
:1039500045F0400565611B68DC6844F01004DC60DC
:103960000F4B1C68256825F0010525601C6825683B
:10397000ED07F7D11D680B4CAC601C68E06018685F
:103980000161186842601868016841F48021016093
:103990001868016841F00101016030BDB8050020E0
:1039A00040060020041001402DE9F041794C00252B
:1039B00079496570607800EB800202EBC0020A442E
:1039C0001279120602D5A580E580B5E0401CC0B290
:1039D00060700528EED36F48A6784FF4FA63C2886A
:1039E0003EB12046022E0DD0032E14D0042E1BD043
:1039F00026E09A4224D903F0AFFFE0600120A070D6
:103A0000E5801DE09A421BD98570E580487C40F036
:103A10008000487412E09A4212D98570E580887F50
:103A200040F08000887709E09A4209D98570E580E6
:103A3000FDF722F8FDF720F8FDF71EF801F06AF90E
:103A40006069564BB0F900605A429E4214DAB0F9F0
:103A5000027021469F420FDAB0F9047097420BDDE5
:103A6000B0F906709F4207DA877A022F04D1C77A2D
:103A7000022F01D18F7897B1964235DDB0F90260FF
:103A80002146964219DDB0F904609E424ADAB0F947
:103A90000630934246DD827A022A04D042E0C8888A
:103AA000401CE0803FE0C07A02283BD18878C0B358
:103AB000C888401CC880022031E09E4232DAB0F94A
:103AC00004209A422EDAB0F906209A422ADA827A43
:103AD000022A27D1C07A022824D1887808B3C8885E
:103AE000401CC88003201AE09E421BDAB0F9021085
:103AF000914217DDB0F904302146934212DDB0F94E
:103B0000063093420EDD827A022A0BD1C07A022857
:103B100008D1887828B1C888401CC8800420A070CB
:103B200001E0FFE7E58003F017FFA061E16844F6DC
:103B30002063421A9A4202D9A570BDE8F08142F290
:103B400010739A4205D921B1A27812B14FF47A715B
:103B500006E0884207D031B1A07850B14FF4FA7135
:103B6000002001F0DFF8A178204611B18188491CBE
:103B7000A180A088B0F5C87F03D9A17809B1A5803C
:103B8000DBE7C828D9D9A0780028D6D0BDE8F04115
:103B900001F0C0B8B4010020F0480020A8FDFFFFEC
:103BA0000C4A10B51168CB6823F40053CB600A4966
:103BB0000B681C6824F001041C600B6858600868DE
:103BC000016841F0010101601068C16841F40051D1
:103BD000C16010BDB8050020400600200348006801
:103BE000C16821F40051C16070470000B805002091
:103BF00010B582B004461548DFF854C00068B0FB29
:103C0000FCF04FF47A7C00FB0CF001906068B0F59A
:103C1000827F0ED10B46009200228021204600F0C8
:103C200019F880B1606D40F02000606502B003209B
:103C300010BD019838B10198401E0190206880683D
:103C400010F0800FF5D102B0002010BDF40000206C
:103C500000366E012DE9F84304460F46904699461A
:103C6000089DFEF7F3F8401BA9EB0005FEF7EEF800
:103C700006462D480068C0F3CB30684300902068AA
:103C8000806837EA00000ED00020404546D0B9F1E8
:103C9000FF3F3BD0FEF7DAF8801BA84205D225B1E2
:103CA000009870B32FE00120EFE72068416821F011
:103CB000E00141606068B0F5827F0BD1A068B0F58B
:103CC000004F02D0B0F5806F04D12068016821F068
:103CD00040010160A06AB0F5005F09D12068016869
:103CE00021F4005101602068016841F40051016035
:103CF000012084F85100002084F850000320BDE822
:103D0000F883FFE700250098401E00902068806837
:103D100037EA000005D000204045B8D10020BDE8BA
:103D2000F8830120F8E70000F4000020012002F0F1
:103D3000E9FBFBE710B5FEF78FF803F0FFFD012864
:103D400003D0BDE8104003F037BD10BD30B593B0CF
:103D500030216846FCF768FB14210CA8FCF764FBD3
:103D60001C480025016841F080510160006800F0A6
:103D7000805011901848016841F44041016000688A
:103D8000022400F4404011900120009000040190B2
:103D90008001CDE9064006200890A820CDE909045D
:103DA00004200B906846FEF727FA00B1FEE70CA945
:103DB0000F2081E831004FF4A0500F904FF4805055
:103DC000109005210CA8FEF7FBF8002800D0FEE7B4
:103DD00013B030BD40380240007000400F48016809
:103DE00041F4700101600E48016841F00101016079
:103DF0000C4A00211160026822F4102222F0807225
:103E00000260031D084A1A60026822F480220260E0
:103E100006480160064958060860704788ED00E0D2
:103E20000038024008380240103000240C380240AC
:103E300008ED00E0F0B402682C4B2D4C2D4D2E4EB9
:103E4000DFF8B8C098420AD0B0F1804F07D0A04246
:103E500005D0A84203D0B04201D0604503D122F082
:103E600070024F683A43984228D0B0F1804F25D075
:103E7000A04223D0A84221D0B0421FD060451DD01F
:103E8000A0F18044B4F5A03418D0A0F18044B4F57A
:103E9000A23413D0A0F18044B4F5A4340ED0A0F124
:103EA0008044B4F5C05409D0A0F18044B4F5E05486
:103EB00004D0A0F18044B4F5005403D122F4407240
:103EC000CC6822434C6922F08002224302608A6857
:103ED000C2620A688262984201D0604501D10969D4
:103EE000016301214161F0BC704700000000014006
:103EF0000004004000080040000C004000040140A5
:103F000001F01F0101238B40D0F820C02CEA0303ED
:103F10000362036A02FA01F1194301627047D0F8A3
:103F200008C02CF47F4C42EA0322114341EA0C0101
:103F300081607047826822F07002114341F00701EE
:103F40008160704770B4026A22F001020262036A63
:103F50004268D0F818C02CF0700C2CF0030C0C68E0
:103F600044EA0C0C23F002038C6823430F4C104DE1
:103F7000A04201D0A84205D123F00803CE68334304
:103F800023F00403A04201D0A84207D122F480729A
:103F900022F400724C6922438C6922434260C0F8CB
:103FA00018C049684163036270BC7047000001405B
:103FB0000004014070B4026A22F010020262036A37
:103FC0004268D0F818C02CF4E04C2CF4407C0C680B
:103FD0004CEA042C23F020038C6843EA0413114CB0
:103FE000114DA04201D0A84206D123F08003CE6833
:103FF00043EA061323F04003A04201D0A84209D1AE
:1040000022F4806222F400624C6942EA84028C69E4
:1040100042EA84024260C0F818C0496881630362C2
:1040200070BC7047000001400004014070B4026A97
:1040300022F480720262036A4268D0F81CC02CF03D
:10404000700C2CF0030C0C6844EA0C0C23F4007385
:104050008C6843EA0423114C114DA04201D0A842C0
:1040600006D123F40063CE6843EA062323F4806379
:10407000A04201D0A84209D122F4805222F4005279
:104080004C6942EA04128C6942EA04124260C0F8A8
:104090001CC04968C163036270BC704700000140E6
:1040A0000004014010B4026A22F480520262D0F887
:1040B00020C04268C36923F4E04323F440730C68D2
:1040C00043EA04232CF4005C8C684CEA043CA0F125
:1040D0008044B4F5803404D0A0F18044B4F5823437
:1040E00004D122F480424C6942EA84124260C361E6
:1040F00049680164C0F820C010BC7047036AD0F85A
:1041000020C02CF0010CC0F820C0D0F818C02CF052
:10411000F00C4CEA021223F00A0319438261016297
:104120007047036A23F010030362D0F818C0036AD3
:104130002CF4704C4CEA023223F0A00343EA011144
:1041400082610162704700002DE9F0410446206859
:104150000169E26821F44051114301612169A068BD
:10416000E26908436169114301432068C26822F48F
:10417000037222F414421143C16020684169A269AC
:1041800021F44071114341612068A0F18041B1F5F3
:1041900088312ED0A0F18041B1F58A3129D0FDF7C8
:1041A000D3FF8446E16900201927254D3226B1F559
:1041B000004F22D06068830F8200ACFB0701FCF740
:1041C000E9F80146A5FB002040097A42424301EB91
:1041D000820106EB0111A5FB0121490901F0F00262
:1041E00002EB001001F00F01084421688860BDE86F
:1041F000F081FDF7B9FF8446D4E761684A1840EBC7
:104200000003ACFB0701FCF7C5F80346A5FB001053
:10421000410918460A016FF01803594300EB810069
:1042200006EBC000A5FB0010400900F0F80102EB0E
:10423000410100F00700084421688860BDE8F08172
:104240001F85EB512DE9F0410446069D8846164630
:104250001F462068006838EA00002AD00020B042DB
:1042600031D1B5F1FF3F26D025B1FDF7EFFDC01BE1
:10427000A84220D920680C3050E8001F21F4D071EA
:1042800040E80012002AF5D12068143050E8001FE1
:1042900021F0010140E80012002AF5D1202084F825
:1042A0003D0084F83E00002084F83C000320BDE877
:1042B000F0810120D3E72068006838EA000005D0CB
:1042C0000020B042CDD00020BDE8F0810120F8E709
:1042D00038B52A4800680168890603D50168406836
:1042E000009038BD26490968C906FAD501684068BA
:1042F000244A0090106801684FF024030C032249FF
:10430000046824F0010404601AD410684468C4F1FD
:104310002404A4B24C8043601068016841F4002179
:1043200001601068016841F001010160122CD8D1D0
:10433000164901F1160002F04FFC1448163019E03E
:1043400014686068C0F1240080B24880636010493E
:104350000B6823F400230B6011680A6842F0010225
:104360000A601228BDD1094901F13A00044602F061
:1043700033FC2046BDE8384002F088BCB805002078
:104380000010014040060020B0010020BC47002082
:1043900088640240FEE74100080218BF04200A0EAC
:1043A00018BF40F001004FF07F4232EA010108BF20
:1043B00040F00200012808BF0520704710B54FF0FB
:1043C0000E402DED028BB0EE408A18EE104A00EB45
:1043D0004400B0F1506F4AD84FF0FC40B0EB440FAE
:1043E00022D2B0EEC80AF7EE000A30EEC00AF6EEAE
:1043F000000A60EE208A18EE900A02F02DFF01EE0E
:10440000100A14F0004F1DBFDFED2D0A9FED2D0A9D
:10441000B1EE411ADFED2C0A08BF9FED2C0AF8EE31
:10442000001A21EE218A05E0DFED290A68EE088AEC
:10443000B0EE600A9FED271ADFED271A30EE080A6A
:1044400048EE811A9FED251A08EEA11ADFED241A15
:1044500048EE811A9FED231A08EEA11A68EE281A79
:10446000BDEC028B01EE810A30EE200A10BD4FF048
:10447000E440B0EB440F0CD918EE100AFFF78BFFA5
:10448000042808BF00F0B2F9B0EE480ABDEC028B78
:1044900010BD4FF07F40B0EB440F07D2B0EE480A9A
:1044A000BDEC028BBDE8104000F091B9012000F096
:1044B000B5F9BDEC028BBDE8104000F08FB90000EB
:1044C0000000C9BF22AAFDB90000C93F22AAFD39D8
:1044D0000000000024FE1C3DC78AD83C1E67383D02
:1044E0001B93993DAFAA2A3E70B54FF068422DED5F
:1044F000048BF0EE408A18EE900AB0EE608A18EE57
:10450000101A02EB4003B3F1654F3CBF02EB4102CE
:10451000B2F1654F7DD200BFC0F3C753C1F3C7529C
:104520009A1A1B2A09DD10F0004F14BF9FED830A71
:104530009FED830ABDEC048B70BD12F11A0F36DAC1
:1045400011F0004F09D010F0004F0CBF9FED7D0A15
:104550009FED7D0ABDEC048B70BD88EE889A19EE44
:10456000100AFFF718FF042808BF00F03FF918EE03
:10457000900AFFF710FF054618EE100AFFF70BFF31
:10458000044619EE100AFFF706FF042D18BF052D8B
:1045900008D1042C18BF052C04D1002804BF022028
:1045A00000F03CF9B0EE490ABDEC048B70BD42004E
:1045B000B2EB410F3AD910F0004F19BFDFED630A9B
:1045C0009FED630ADFED630A9FED630AB0EE481AC0
:1045D0000A46B1EE688A80F00041F0EE418A10464A
:1045E0000A1A5200B2F1807F34D2484010F0004FD6
:1045F000DFED5A1A9FED5A2A1DBFBEEE001A70EE6B
:10460000E10A30EE420AB6EE001A08BF70EEA10AC7
:1046100000E040E008BF30EE020AB0EE682A01EE8A
:10462000482A08EE818AC2EE081A15E011F0004F00
:1046300004BF9FED4C0AF0EE400AD1D010F0004FBD
:1046400019BFDFED490A9FED490ADFED490A9FEDE9
:10465000490AC5E7C8EE881A21EEA11A9FED462A3D
:10466000DFED462A41EE022A9FED452A01EE222A7D
:10467000DFED442A41EE022A9FED432ABDEC048B74
:1046800001EE222A21EE811A01EE020A30EE210A01
:1046900030EE200A70BD4FF07F42B2EB400F28BFD2
:1046A000B2EB410F09D2F0EE480AB0EE680ABDEC59
:1046B000048BBDE8704000F08DB840EA01035B0058
:1046C00008BF41F0FF410BD0B2EB400F08BFB2EB87
:1046D000410F08D120F0804008EE900A21F080417F
:1046E00008EE101A18E7B2EB400F12BF5FEA410361
:1046F00040F0FF4001F000413FF40EAFB2EB410F3C
:1047000012BF5FEA400200F0004041F0FF413FF479
:1047100003AF4A0092EA40033FF5FEAE002AACBF69
:104720009FED1A0A9FED1A0A68EE808A28EE008A29
:1047300018EE900A18EE101AEEE60000DB0FC9BF63
:10474000DB0FC93FDB0F4940DB0F49C00000C9BF89
:1047500022AAFDB90000C93F22AAFD390060ED3E42
:10476000C30ACE3700000000000049C022AA7DBA6B
:104770000000494022AA7D3A2DAD65BD8FB8D53DD8
:104780000FB511BE61C84C3EA8AAAABE0000804F5A
:104790000000802F10B52DED028BB1EEC08A18EE0F
:1047A000100A20F00040C0F1FF40C00F0AD010EE08
:1047B000100A20F00040C0F1FF40C00F04BF0120EC
:1047C00000F02CF8B0EE480ABDEC028B10BD30EEC4
:1047D000000A704730EE200A70470000DFED020A41
:1047E00080EEA00A70470000000000009FED020A62
:1047F00020EE000A704700000000001002E008C828
:10480000121F08C1002AFAD170477047002001E04A
:1048100001C1121F002AFBD1704700000149086046
:104820007047000028020020D0ED000AF4EEC00A14
:10483000F1EE10FA06DCB1EE400AF4EEC00AF1EE39
:1048400010FA01D280ED000A7047000070B52DED1E
:10485000028B8AB005460C4616460DB104B11EB94E
:104860000AB0BDEC028B70BD94ED000AB5EEC00A33
:10487000F1EE10FA0DD194ED010AB5EEC00AF1EE99
:1048800010FA06D194ED020AB5EEC00AF1EE10FA64
:104890007DD09FED600AB0EE408A0020079008901E
:1048A00009900490059006905B4A07CA01AB07C3C4
:1048B00095ED010AD5ED030A20EE200AD5ED000A98
:1048C00095ED021A00EEC10AF0EE000A20EE200A71
:1048D0008DED070A95ED000AD5ED010A20EE200ABC
:1048E000D5ED020A95ED031A00EE810AF0EE000AFA
:1048F00020EE200A8DED080A95ED000A20EE000A50
:10490000D5ED030A95ED031A00EE810AF7EE000AD1
:10491000B0EE001A51EE000ACDED090A01AB2246B5
:104920003146284600F07AF8D4ED000A60EEA00A7D
:1049300094ED011AD4ED011A41EE210A94ED021A08
:10494000D4ED021A41EE210AB0EE600AFBF74EFFE9
:10495000B0EE408A94ED000A20EE080A84ED000AC9
:1049600094ED010A20EE080A84ED010A94ED020A92
:1049700020EE080A84ED020A94ED010ADDED090A31
:1049800020EE200AD4ED020A9DED081A00E03EE078
:1049900000EEC10A8DED040A94ED020ADDED070A6E
:1049A00020EE200AD4ED000A9DED091A00EEC10A9E
:1049B0008DED050A94ED000ADDED080A20EE200ACF
:1049C000D4ED010A9DED071A00EEC10A8DED060A2D
:1049D00096ED000ADDED010A9DED041A00EE810A54
:1049E00086ED000A96ED010ADDED020A9DED051A3D
:1049F00000EE810A86ED010A96ED020ADDED030A5A
:104A00009DED061A00EE810A86ED020A00BF00BF86
:104A100026E7000000000000DC7B00082DE9F041E3
:104A20002DED048B07460D4614461E469FED580A91
:104A3000B0EE409A9FED560AB0EE408A9FED540AC0
:104A4000F0EE408AD4ED000A60EEA00A94ED011A5F
:104A5000D4ED011A41EE210A94ED021AD4ED021AA6
:104A600041EE210AB0EE600AFBF7C0FEF7EE000A45
:104A700080EE801AB0EE419AD5ED000AB0EE600AE1
:104A8000FBF747FDF0EE409AD5ED010AB0EE600A63
:104A9000FBF73FFD79EE809AD5ED020AB0EE600A91
:104AA000FBF737FD39EE800AF0EE408A3948D0ED49
:104AB000000A79EE600AB0EE600AFBF72AFDB0EE5C
:104AC000408A9FED350AB4EEC08AF1EE10FA06DC9A
:104AD0009FED320AF4EEC08AF1EE10FA53DD9FED3D
:104AE0002C2AB0EE420A9FED2A2AF0EE421AB7EEC7
:104AF000002AF0EE420A9FED262AB0EE421AB5EEE9
:104B0000C08AF1EE10FA05DD9FED232AC2EE082AD5
:104B1000B0EE620A9FED222AB4EEC20AF1EE10FA5C
:104B200003D29FED1B2AB0EE420AF5EEC08AF1EEE9
:104B300010FA05DD9FED192AC2EE282AF0EE621A5E
:104B4000B7EE002AB4EEC20AF1EE10FA03D220EE5C
:104B5000802AF0EE420AB7EE002AF4EEC21AF1EE15
:104B600010FA03D220EEA12AF0EE420A9FED0D2AA0
:104B700020EE822AB0EE421A86ED001A86ED011A66
:104B800086ED021A00BFBDEC048BBDE8F081000089
:104B90000000000024020020CDCCCC3D8FC2F53DAA
:104BA0009A99993ECDCC4C3E10B52DED048B86B034
:104BB0000446B0EE408AF0EE608AB0EE419A0020E2
:104BC000039004900590009001900290B0EE000ACE
:104BD000C8EE000AF0EE609AB0EE690AFBF797FCA7
:104BE0008DED030AB0EE000AC8EE800AF0EE609A7E
:104BF000B0EE690AFBF78BFC8DED040AB0EE000AFB
:104C0000C9EE000AF0EE609AB0EE690AFBF77FFC8D
:104C10008DED050AB0EE000AC8EE000AF0EE609ACB
:104C2000B0EE690AFBF7ECFD8DED000AB0EE000A6C
:104C3000C8EE800AF0EE609AB0EE690AFBF7E0FD7C
:104C40008DED010AB0EE000AC9EE000AF0EE609A9E
:104C5000B0EE690AFBF7D4FD8DED020A9DED050A61
:104C6000DDED040A20EE200ADDED030A20EE200A25
:104C7000DDED020A9DED011A60EE810A9DED001A3C
:104C800000EE810A84ED000A9DED020ADDED040AC2
:104C900020EE200ADDED030A20EE200ADDED050AF4
:104CA0009DED011A60EE810A9DED001A00EEC10A29
:104CB00084ED010A9DED050ADDED010A20EE200AD2
:104CC000DDED030A20EE200ADDED020A9DED041A57
:104CD00060EE810A9DED001A00EE810A84ED020A61
:104CE0009DED050ADDED040A20EE200ADDED000A47
:104CF00020EE200ADDED020A9DED011A60EE810A28
:104D00009DED031A00EEC10A84ED030A06B0BDEC66
:104D1000048B10BD024900200968486370470000F9
:104D200070050020024A136898621068416370475A
:104D3000700500202DE9F05F9846DDE90AA9DDF84D
:104D400030B016460F4604007DD0002F7BD0002ED9
:104D500079D0B8F1000F76D05FEA0A0073D05FEA2D
:104D6000090070D05FEA0B006DD0218A608A41F69D
:104D7000FF75081A00B2002801DA284400B200EBDF
:104D8000D070A1EB600000B2B0F5005F03DBA0F5CE
:104D9000F850FF3802E0002801DA284400B281B25E
:104DA0003980208A01F0E0FA88ED000A3988608AAB
:104DB00001F0DAFA8AED000A94ED020ADFED2E0A1C
:104DC000A18AE28A80EE201ABDEEC10A10EE100A16
:104DD00094ED030A084480EE201A01B2BDEEC10A28
:104DE00010EE100A10444FF4005200B2914203DB5F
:104DF000A1F5F851FF3902E0002901DA294409B28E
:104E0000904203DBA0F5F850FF3802E0002801DAF9
:104E1000284400B2081A00B2B0F5805F03DDA0F5A7
:104E2000F850FF3803E010F5805F01DA284400B243
:104E300000EBD070A1EB600000B2904204DBA0F563
:104E4000F850FF3803E014E0002801DA284400B2EB
:104E500081B23180A08A01F087FAB1EE400A89ED73
:104E6000000A3188E08A01F07FFAB1EE400A8BED4A
:104E7000000ABDE8F09F0000DB0F493A2DE9F84336
:104E80000025DFF88890DFF888802E4605EB850046
:104E900000EBC50707EB08042079D4F8051000F0F3
:104EA0007F0206EB090000F008FA2079012200F0E9
:104EB0007F0006EB800086B2694606EB090000F031
:104EC000FCF99DF8001008F807109DF801006070CB
:104ED0009DF80200A0709DF80300361DE070B6B288
:104EE000552806D0D4F8090018B1207940F0800088
:104EF000207198F81E106D1C41F08001EDB288F809
:104F00001E10052DC2D3BDE8F883000000000A087A
:104F1000F04800202DE9F041DFF85C8000242646AF
:104F2000A8F1780704EB840000EBC40101EB08054D
:104F30002879D5F805104006C20DB819FBF75BFAC1
:104F40002879641C00F07F0006EB800080B23918DD
:104F5000001D2A68E4B20A6086B2052CE2D3074C31
:104F60000121204600F094F92046BDE8F0410249B5
:104F70001E22783900F0A8B9F048002000000A0885
:104F80001CB511B1012908D01BE0011D91EC040AE8
:104F90004188008801F09EFE13E000F11002111F0D
:104FA000CDE900120B1F021D811C00F0F5F818B1AD
:104FB000FFF7B0FE01201CBD4FF47A710020FFF70F
:104FC000B1FE00201CBD00000A0010B5014600F132
:104FD0000C0002D0012A03D01CE0FEF7CBF819E048
:104FE0000D4AFEF797F80C4842F210720838018912
:104FF000914208D900210181FFF78CFE2420FEF7A1
:10500000CFFD012010BDFEF7E9FD4FF4FA7100203D
:10501000FFF788FE002010BDBC01002039B100213F
:10502000017043F23901A0F80110024941600120EA
:10503000704700000000B0412DE9F0411A4A1B4DB5
:10504000002002F1240302F1100600EB800101EBC5
:10505000C0012944145C0F7964F306070F7156F8F8
:105060002040C1F8054053F82040401CC0B2C1F8B0
:1050700009400528E9D3FFF701FF002404EB840071
:1050800000EBC4002844C178552906D1D0F8092086
:105090001AB156F8240000219047641CE4B2052C94
:1050A000ECD3BDE8F0810000D0010020F0480020E2
:1050B00000F096FA1F4C00261F4D6061FEF774FC4D
:1050C0002670207800EB800101EBC00129440A79A9
:1050D000120621D5D1F80920F2B116492C3151F828
:1050E000200001219047B8B12078144F00EB400315
:1050F00000EB800202EBC000F95C2954D919284466
:105100004A784270897881705521C170017921F007
:1051100080010171FFF7FEFE2078401CC0B22070B4
:105120000528CED3012001F0EDF9002002F05AF954
:105130002061C3E7B4010020F0480020C07B0008D4
:1051400000B58BB000200121CDE906010891009047
:105150000190029003900590049069460C48FBF77B
:1051600007FF0B48FCF7CFFA02210948FBF76CFE5A
:105170000E200990059069460648FBF7F9FE0548A0
:10518000FCF7C1FA02210348FBF75EFE0BB000BD3D
:1051900080040020A80400202DE9FE4F81463848F5
:1051A0008A46DDE90C7690F8E4111C46154619B1E3
:1051B0008046052921D01DE0012180F8E411D0EDC1
:1051C0006B0AC0ED750AD0F8EC100A88A0F8E0214F
:1051D00090ED330A80ED730AC2681388A0F8DC31C1
:1051E000C0ED760A0988A0F8E21180ED740A1188F2
:1051F000A0F8DE110020BDE8FE8FCDE90047134680
:10520000524649461F480296FFF794FDD5ED000A25
:105210009FED1D0A1D4870EEC00AC5ED000AD4EDD1
:10522000000A70EE800AC4ED000AD7ED000A70EEA5
:10523000C00AC7ED000AD6ED000A30EE800A86EDFE
:10524000000AB9F80010A8F8BA1095ED000A88ED28
:105250002F0A94ED000A88ED300ABAF80010A8F879
:105260009A1197ED000A002188ED670A96ED000A71
:1052700088ED680A88F8E41101700120BBE700009E
:10528000C04500208C470020CDCCCC3D84010020BF
:1052900010B586B00C4600F057F802900020009040
:1052A0000220CDE90340FCF789FC05A96846FCF71C
:1052B000E3FBFCF739FC06B010BD0B46014692003B
:1052C0001846FBF798B800002DE9F04115460F4647
:1052D0000646FCF773FC154C3046266000F012F9C8
:1052E000C4E901070020E06017E0A068002302681D
:1052F0000220FCF723FC28B1FCF716FC4FF0FF302E
:10530000BDE8F0812068001D2060A068001DA0603D
:10531000E068401CE060A84203D0D4E9001081425C
:10532000E3D9FCF701FC0020EAE70000600100205F
:105330000149096848637047280500200149096848
:1053400088637047280500200021A0F100634FF416
:105350008042934241D322490144914201D201212A
:105360003BE020490144914201D2022135E01E492F
:105370000144914201D203212FE01C490144B1F5BF
:10538000803F01D2042128E0194942184FF400312E
:105390008A4201D2052120E0164A02448A4201D203
:1053A00006211AE0144A02448A4201D2072114E07D
:1053B000124A02448A4201D208210EE0104A0244F5
:1053C0008A4201D2092108E00E4A02448A4201D2EF
:1053D0000A2102E00C4A0B211044084670470000E5
:1053E00000C0FFF70080FFF70040FFF70000FFF765
:1053F0000000FEF70000FCF70000FAF70000F8F7E5
:105400000000F6F70000F4F70000F2F700487047DC
:105410008C0700202DE9F04104460D4616461F4634
:1054200014B10DB106B10FB9BDE8F081D4ED010A98
:1054300094ED031A60EE810A94ED001AD4ED021A7D
:1054400041EE610AB8EE001A60EE810AB0EE600A21
:10545000FBF759F886ED000A94ED001A21EE011AC7
:10546000D4ED011A94ED012A01EE821AF7EE001A2A
:10547000B0EE002A52EE011AF0EE610A94ED001A25
:10548000D4ED031A21EE211AD4ED011A94ED022A6B
:1054900001EE821AF0EE001A21EE211AB0EE410A56
:1054A000FBF733F885ED000A94ED001A21EE011A9E
:1054B000D4ED031A94ED032A01EE821AF7EE001AD6
:1054C000B0EE002A52EE011AF0EE610A94ED001AD5
:1054D000D4ED011A21EE211AD4ED021A94ED032A1B
:1054E00001EE821AF0EE001A21EE211AB0EE410A06
:1054F000FBF70BF887ED000A00BF95E700487047FF
:1055000058070020A0F100624FF480418A4201D286
:1055100026487047254A524202448A4201D2244812
:105520007047234A524202448A4201D221487047BE
:10553000204A524202448A4201D21F4870471E4903
:1055400049420144B1F5803F01D21C4870471B49D4
:10555000494242184FF400318A4201D2184870473C
:10556000174A524202448A4201D216487047154AED
:10557000524202448A4201D213487047124A5242B0
:1055800002448A4201D211487047104A52420244F2
:105590008A4201D20E4870470D4A52421044884256
:1055A00001D20C4870474FF001607047004000087E
:1055B0000080000800C00008000001080000020888
:1055C00000000408000006080000080800000A089F
:1055D00000000C0800000E08004870477A450020C3
:1055E00000487047BC4700200048704784450020B1
:1055F000004870477045002010B504002DED028B67
:10560000B0EE418A3ED084ED040AC4ED030A30EEC8
:10561000C00A9FED1E1ADFED1E0A00F02FFE84ED7A
:10562000050AD4ED000A04F1240060EE800AC4EDFE
:10563000080AD4ED090A94ED011A41EE000AC4EDFE
:10564000090A94ED020A20EE080A84ED0A0A94ED94
:10565000070AFFF7E9F894ED080AD4ED090A04F106
:105660002C0030EE200AD4ED0A0A30EE200A84ED38
:105670000B0A94ED060AFFF7D7F894ED0B0ABDEC80
:10568000028B10BD9FED030AF9E70000560E49405A
:10569000560E49C00000000000280FD09FED080AF8
:1056A00080ED040A80ED030A80ED050A80ED0A0A08
:1056B00080ED090A80ED080A80ED0B0A70470000B2
:1056C0000000000000280BD080EC031A9FED051AA3
:1056D00080ED051A80ED041AC0ED070A80ED060A78
:1056E00070470000000000002DE9F04115462DED47
:1056F000028B06007CD000297AD0002D78D02A6851
:1057000000274B4CB2F90400431D0B2B01D36081E1
:1057100000E06781B2F90600431D0B2B01D3A08185
:1057200000E0A781B4F90A0000EE100AB8EEC00A42
:10573000DFED400AB2F90C009FED3F1A20EE200A7F
:1057400000EE900A9FED3F8ADFED3F8AF8EEE00A17
:1057500000EEC10ADFED390A9FED391A86ED000A25
:10576000B4F90C0000EE100A2868B8EEC00AB0F9CF
:105770000E0020EE200A00EE900AF8EEE00A00EE9D
:10578000810A81ED000A2868808A800512D5E089A7
:1057900080050FD4A07868B90120A07095ED330A78
:1057A000B0EE481AF0EE680A30EE010A00F066FD2D
:1057B00084ED050A2868808AE081A078002833D02B
:1057C00095ED330AD4ED050AB0EE481A30EEC00A62
:1057D000F0EE680A00F052FDDFED1C0AB5EEC00ADB
:1057E000F1EE10FA96ED000A03DD30EE200A02E039
:1057F0001AE030EE600A86ED000AA078002813D087
:1058000095ED330AD4ED050AB0EE481A30EEC00A21
:10581000F0EE680A00F032FDB0EEC00A10EE100A99
:105820000B49884200DAA770BDEC028BBDE8F0811D
:1058300084010020ACC5A7B617B751389C53C9B630
:1058400052491D39DB0F4940DB0F49C00AD7233DC0
:105850000AD7233C10B504002DED048BB0EE408A2E
:1058600043D094ED310AD4ED300ADFED218A9FED6B
:10587000219A30EE600AB0EE681AF0EE490A00F0A4
:10588000FDFC1D4880ED020A94ED2E2AD4ED2C2A51
:1058900072EE000A70EE881AF4EEE21AF1EE10FAD7
:1058A00005DDB5EEC08AF1EE10FA0CDC0FE0D4EDA8
:1058B0002D2AF4EEE21AF1EE10FA08D2B5EEC08A03
:1058C000F1EE10FA03D272EEC20A30EEC08A94ED05
:1058D000310AB0EE681A80ED030A30EE080AF0EEE5
:1058E000490A00F0CBFC84ED310ABDEC048B10BDFD
:1058F000560E4940560E49C09C01002030B4002885
:1059000016D0002914D0002A12D01E4B9FED1E0A7B
:105910001B784BB1012B0DD0022B2AD0032B2BD09F
:10592000042B2CD0052B03D180ED000A81ED000A59
:1059300030BC7047D2ED6B0A144CB1EE601AB0EE79
:10594000C11A11EE103A9FED121AA34204DD60EE67
:10595000810AC1ED000A09E020EE810ADFED0D0A9F
:1059600081ED000A92ED310A20EE200A80ED000A56
:10597000DEE730BC00F094B830BCFFF7B5BE30BCF9
:1059800000F0C4BA8401002000000000CDCCCC3D62
:105990006F1283BB0AD7A3BB10B5040010D000F070
:1059A0001FF80E480022017859B1022001290DD0BC
:1059B000022906D003290ED0042907D0052905D0D5
:1059C00010BD84F8B82084F8982110BD84F8B80080
:1059D00084F8980110BD0120F8E700008401002040
:1059E00070B5002812D02C4900220B78022B06D06B
:1059F00090F8E441012C07D0012B08D034E090F856
:105A0000E431052B02D12FE00220087070BD8B8895
:105A1000224D5B1C9BB28B8090ED310A4FF4FA54FF
:105A2000B0EEC00A10EE106AAE420DDA90ED6B0ACD
:105A3000B0EEC00A10EE106AAE4205DACB88642BD5
:105A400006D25B1CCB8003E0A3420BD25B1C8B8095
:105A50008B88A34206D2CB88642B03D203689B7A3F
:105A6000022BD3D1CA808A800068807A022804D0B1
:105A7000032804D0012804D005E00A7003E00420C4
:105A800000E003200870487818B9087808B10120B0
:105A900008700878487070BD84010020CDCCCC3DE2
:105AA000F0B5002818D0002916D0002A14D092F89A
:105AB000E45100249FED400A404E414B4FF4FA67F9
:105AC000012D0AD0022D23D0032D41D0042D59D011
:105AD000052D01D11C811C70F0BDDFED3A0AC1ED2E
